{
  "_format": "hh-sol-artifact-1",
  "contractName": "FutarchyGoal",
  "sourceName": "contracts/FutarchyGoal.sol",
  "abi": [
    {
      "inputs": [
        {
          "internalType": "string",
          "name": "_description",
          "type": "string"
        },
        {
          "internalType": "address",
          "name": "_owner",
          "type": "address"
        },
        {
          "internalType": "uint256",
          "name": "_goalMaturity",
          "type": "uint256"
        },
        {
          "internalType": "uint256",
          "name": "_goalValue",
          "type": "uint256"
        },
        {
          "internalType": "uint256",
          "name": "_votingDeadline",
          "type": "uint256"
        },
        {
          "internalType": "bool",
          "name": "_demo",
          "type": "bool"
        }
      ],
      "stateMutability": "nonpayable",
      "type": "constructor"
    },
    {
      "inputs": [
        {
          "internalType": "address",
          "name": "owner",
          "type": "address"
        }
      ],
      "name": "OwnableInvalidOwner",
      "type": "error"
    },
    {
      "inputs": [
        {
          "internalType": "address",
          "name": "account",
          "type": "address"
        }
      ],
      "name": "OwnableUnauthorizedAccount",
      "type": "error"
    },
    {
      "anonymous": false,
      "inputs": [
        {
          "indexed": true,
          "internalType": "address",
          "name": "previousOwner",
          "type": "address"
        },
        {
          "indexed": true,
          "internalType": "address",
          "name": "newOwner",
          "type": "address"
        }
      ],
      "name": "OwnershipTransferred",
      "type": "event"
    },
    {
      "anonymous": false,
      "inputs": [
        {
          "indexed": false,
          "internalType": "uint256",
          "name": "_proposalId",
          "type": "uint256"
        },
        {
          "indexed": false,
          "internalType": "address",
          "name": "_proposalAddr",
          "type": "address"
        }
      ],
      "name": "ProposalAdded",
      "type": "event"
    },
    {
      "inputs": [
        {
          "internalType": "string",
          "name": "_description",
          "type": "string"
        }
      ],
      "name": "createProposal",
      "outputs": [],
      "stateMutability": "nonpayable",
      "type": "function"
    },
    {
      "inputs": [],
      "name": "currentProposal",
      "outputs": [
        {
          "internalType": "uint256",
          "name": "",
          "type": "uint256"
        }
      ],
      "stateMutability": "view",
      "type": "function"
    },
    {
      "inputs": [],
      "name": "demo",
      "outputs": [
        {
          "internalType": "bool",
          "name": "",
          "type": "bool"
        }
      ],
      "stateMutability": "view",
      "type": "function"
    },
    {
      "inputs": [],
      "name": "description",
      "outputs": [
        {
          "internalType": "string",
          "name": "",
          "type": "string"
        }
      ],
      "stateMutability": "view",
      "type": "function"
    },
    {
      "inputs": [],
      "name": "endProposalVoting",
      "outputs": [],
      "stateMutability": "nonpayable",
      "type": "function"
    },
    {
      "inputs": [
        {
          "internalType": "uint256",
          "name": "_proposalId",
          "type": "uint256"
        }
      ],
      "name": "getProposal",
      "outputs": [
        {
          "internalType": "address",
          "name": "",
          "type": "address"
        }
      ],
      "stateMutability": "view",
      "type": "function"
    },
    {
      "inputs": [],
      "name": "goalAchieved",
      "outputs": [],
      "stateMutability": "nonpayable",
      "type": "function"
    },
    {
      "inputs": [],
      "name": "goalMaturity",
      "outputs": [
        {
          "internalType": "uint256",
          "name": "",
          "type": "uint256"
        }
      ],
      "stateMutability": "view",
      "type": "function"
    },
    {
      "inputs": [],
      "name": "goalValue",
      "outputs": [
        {
          "internalType": "uint256",
          "name": "",
          "type": "uint256"
        }
      ],
      "stateMutability": "view",
      "type": "function"
    },
    {
      "inputs": [],
      "name": "nbProposals",
      "outputs": [
        {
          "internalType": "uint256",
          "name": "",
          "type": "uint256"
        }
      ],
      "stateMutability": "view",
      "type": "function"
    },
    {
      "inputs": [],
      "name": "oracle",
      "outputs": [
        {
          "internalType": "address",
          "name": "",
          "type": "address"
        }
      ],
      "stateMutability": "view",
      "type": "function"
    },
    {
      "inputs": [],
      "name": "owner",
      "outputs": [
        {
          "internalType": "address",
          "name": "",
          "type": "address"
        }
      ],
      "stateMutability": "view",
      "type": "function"
    },
    {
      "inputs": [
        {
          "internalType": "uint256",
          "name": "",
          "type": "uint256"
        }
      ],
      "name": "proposals",
      "outputs": [
        {
          "internalType": "address",
          "name": "",
          "type": "address"
        }
      ],
      "stateMutability": "view",
      "type": "function"
    },
    {
      "inputs": [],
      "name": "renounceOwnership",
      "outputs": [],
      "stateMutability": "nonpayable",
      "type": "function"
    },
    {
      "inputs": [],
      "name": "startTime",
      "outputs": [
        {
          "internalType": "uint256",
          "name": "",
          "type": "uint256"
        }
      ],
      "stateMutability": "view",
      "type": "function"
    },
    {
      "inputs": [
        {
          "internalType": "address",
          "name": "newOwner",
          "type": "address"
        }
      ],
      "name": "transferOwnership",
      "outputs": [],
      "stateMutability": "nonpayable",
      "type": "function"
    },
    {
      "inputs": [],
      "name": "votingDeadline",
      "outputs": [
        {
          "internalType": "uint256",
          "name": "",
          "type": "uint256"
        }
      ],
      "stateMutability": "view",
      "type": "function"
    }
  ],
  "bytecode": "0x608060405234801561001057600080fd5b506040516137d63803806137d68339818101604052810190610032919061047a565b84600073ffffffffffffffffffffffffffffffffffffffff168173ffffffffffffffffffffffffffffffffffffffff16036100a55760006040517f1e4fbdf700000000000000000000000000000000000000000000000000000000815260040161009c9190610532565b60405180910390fd5b6100b48161016860201b60201c565b5085600490816100c49190610764565b506040516100d19061022c565b604051809103906000f0801580156100ed573d6000803e3d6000fd5b50600260006101000a81548173ffffffffffffffffffffffffffffffffffffffff021916908373ffffffffffffffffffffffffffffffffffffffff16021790555083600681905550826007819055508160088190555080600960006101000a81548160ff021916908315150217905550505050505050610836565b60008060009054906101000a900473ffffffffffffffffffffffffffffffffffffffff169050816000806101000a81548173ffffffffffffffffffffffffffffffffffffffff021916908373ffffffffffffffffffffffffffffffffffffffff1602179055508173ffffffffffffffffffffffffffffffffffffffff168173ffffffffffffffffffffffffffffffffffffffff167f8be0079c531659141344cd1fd0a4f28419497f9722a3daafe3b4186f6b6457e060405160405180910390a35050565b610214806135c283390190565b6000604051905090565b600080fd5b600080fd5b600080fd5b600080fd5b6000601f19601f8301169050919050565b7f4e487b7100000000000000000000000000000000000000000000000000000000600052604160045260246000fd5b6102a082610257565b810181811067ffffffffffffffff821117156102bf576102be610268565b5b80604052505050565b60006102d2610239565b90506102de8282610297565b919050565b600067ffffffffffffffff8211156102fe576102fd610268565b5b61030782610257565b9050602081019050919050565b60005b83811015610332578082015181840152602081019050610317565b60008484015250505050565b600061035161034c846102e3565b6102c8565b90508281526020810184848401111561036d5761036c610252565b5b610378848285610314565b509392505050565b600082601f8301126103955761039461024d565b5b81516103a584826020860161033e565b91505092915050565b600073ffffffffffffffffffffffffffffffffffffffff82169050919050565b60006103d9826103ae565b9050919050565b6103e9816103ce565b81146103f457600080fd5b50565b600081519050610406816103e0565b92915050565b6000819050919050565b61041f8161040c565b811461042a57600080fd5b50565b60008151905061043c81610416565b92915050565b60008115159050919050565b61045781610442565b811461046257600080fd5b50565b6000815190506104748161044e565b92915050565b60008060008060008060c0878903121561049757610496610243565b5b600087015167ffffffffffffffff8111156104b5576104b4610248565b5b6104c189828a01610380565b96505060206104d289828a016103f7565b95505060406104e389828a0161042d565b94505060606104f489828a0161042d565b935050608061050589828a0161042d565b92505060a061051689828a01610465565b9150509295509295509295565b61052c816103ce565b82525050565b60006020820190506105476000830184610523565b92915050565b600081519050919050565b7f4e487b7100000000000000000000000000000000000000000000000000000000600052602260045260246000fd5b6000600282049050600182168061059f57607f821691505b6020821081036105b2576105b1610558565b5b50919050565b60008190508160005260206000209050919050565b60006020601f8301049050919050565b600082821b905092915050565b60006008830261061a7fffffffffffffffffffffffffffffffffffffffffffffffffffffffffffffffff826105dd565b61062486836105dd565b95508019841693508086168417925050509392505050565b6000819050919050565b600061066161065c6106578461040c565b61063c565b61040c565b9050919050565b6000819050919050565b61067b83610646565b61068f61068782610668565b8484546105ea565b825550505050565b600090565b6106a4610697565b6106af818484610672565b505050565b5b818110156106d3576106c860008261069c565b6001810190506106b5565b5050565b601f821115610718576106e9816105b8565b6106f2846105cd565b81016020851015610701578190505b61071561070d856105cd565b8301826106b4565b50505b505050565b600082821c905092915050565b600061073b6000198460080261071d565b1980831691505092915050565b6000610754838361072a565b9150826002028217905092915050565b61076d8261054d565b67ffffffffffffffff81111561078657610785610268565b5b6107908254610587565b61079b8282856106d7565b600060209050601f8311600181146107ce57600084156107bc578287015190505b6107c68582610748565b86555061082e565b601f1984166107dc866105b8565b60005b82811015610804578489015182556001820191506020850194506020810190506107df565b86831015610821578489015161081d601f89168261072a565b8355505b6001600288020188555050505b505050505050565b612d7d806108456000396000f3fe608060405234801561001057600080fd5b506004361061010b5760003560e01c80635c4f4fd4116100a25780637dc0d1d0116100715780637dc0d1d0146102605780638da5cb5b1461027e578063c7f758a81461029c578063f2dee81e146102cc578063f2fde38b146102d65761010b565b80635c4f4fd4146101fc578063715018a61461021a5780637284e4161461022457806378e97925146102425761010b565b8063224a9dfe116100de578063224a9dfe146101865780632b49d425146101a457806349c2a1a6146101c2578063583a135d146101de5761010b565b8063013cf08b1461011057806301725a0b14610140578063036ee8501461015e5780630f7a45901461017c575b600080fd5b61012a60048036038101906101259190610bf1565b6102f2565b6040516101379190610c5f565b60405180910390f35b610148610331565b6040516101559190610c95565b60405180910390f35b610166610344565b6040516101739190610cbf565b60405180910390f35b61018461034a565b005b61018e6104fc565b60405161019b9190610cbf565b60405180910390f35b6101ac610502565b6040516101b99190610cbf565b60405180910390f35b6101dc60048036038101906101d79190610d3f565b610508565b005b6101e661067a565b6040516101f39190610cbf565b60405180910390f35b610204610680565b6040516102119190610cbf565b60405180910390f35b61022261068d565b005b61022c6106a1565b6040516102399190610e1c565b60405180910390f35b61024a61072f565b6040516102579190610cbf565b60405180910390f35b610268610735565b6040516102759190610c5f565b60405180910390f35b61028661075b565b6040516102939190610c5f565b60405180910390f35b6102b660048036038101906102b19190610bf1565b610784565b6040516102c39190610c5f565b60405180910390f35b6102d46107cc565b005b6102f060048036038101906102eb9190610e6a565b6109cb565b005b6001818154811061030257600080fd5b906000526020600020016000915054906101000a900473ffffffffffffffffffffffffffffffffffffffff1681565b600960009054906101000a900460ff1681565b60085481565b6006548060055461035b9190610ec6565b4211806103745750600960009054906101000a900460ff165b6103b3576040517f08c379a00000000000000000000000000000000000000000000000000000000081526004016103aa90610f46565b60405180910390fd5b6000600754600260009054906101000a900473ffffffffffffffffffffffffffffffffffffffff1673ffffffffffffffffffffffffffffffffffffffff1663de2927896040518163ffffffff1660e01b8152600401602060405180830381865afa158015610425573d6000803e3d6000fd5b505050506040513d601f19601f820116820180604052508101906104499190610f7b565b1015905060016003548154811061046357610462610fa8565b5b9060005260206000200160009054906101000a900473ffffffffffffffffffffffffffffffffffffffff1673ffffffffffffffffffffffffffffffffffffffff166351045fab826040518263ffffffff1660e01b81526004016104c69190610c95565b600060405180830381600087803b1580156104e057600080fd5b505af11580156104f4573d6000803e3d6000fd5b505050505050565b60065481565b60035481565b610510610a51565b600030838360405161052190610ba4565b61052d93929190611013565b604051809103906000f080158015610549573d6000803e3d6000fd5b5090506001819080600181540180825580915050600190039060005260206000200160009091909190916101000a81548173ffffffffffffffffffffffffffffffffffffffff021916908373ffffffffffffffffffffffffffffffffffffffff1602179055506000600180805490506105c29190611045565b90506000810361063b5780600381905550426005819055508173ffffffffffffffffffffffffffffffffffffffff16631ec6b60a6040518163ffffffff1660e01b8152600401600060405180830381600087803b15801561062257600080fd5b505af1158015610636573d6000803e3d6000fd5b505050505b7f930cbf894ce7980f8d7e648e4f579028f57f4fb8950bfc42d1a411374c5cef5a818360405161066c929190611079565b60405180910390a150505050565b60075481565b6000600180549050905090565b610695610a51565b61069f6000610ad8565b565b600480546106ae906110d1565b80601f01602080910402602001604051908101604052809291908181526020018280546106da906110d1565b80156107275780601f106106fc57610100808354040283529160200191610727565b820191906000526020600020905b81548152906001019060200180831161070a57829003601f168201915b505050505081565b60055481565b600260009054906101000a900473ffffffffffffffffffffffffffffffffffffffff1681565b60008060009054906101000a900473ffffffffffffffffffffffffffffffffffffffff16905090565b60006001828154811061079a57610799610fa8565b5b9060005260206000200160009054906101000a900473ffffffffffffffffffffffffffffffffffffffff169050919050565b6107d4610a51565b600854806005546107e59190610ec6565b4211806107fe5750600960009054906101000a900460ff165b61083d576040517f08c379a000000000000000000000000000000000000000000000000000000000815260040161083490610f46565b60405180910390fd5b600060016003548154811061085557610854610fa8565b5b9060005260206000200160009054906101000a900473ffffffffffffffffffffffffffffffffffffffff1673ffffffffffffffffffffffffffffffffffffffff1663c3403ddf6040518163ffffffff1660e01b81526004016020604051808303816000875af11580156108cc573d6000803e3d6000fd5b505050506040513d601f19601f820116820180604052508101906108f0919061112e565b9050806109c75760035460018054905011156109c657600360008154809291906109199061115b565b91905055504260058190555060016003548154811061093b5761093a610fa8565b5b9060005260206000200160009054906101000a900473ffffffffffffffffffffffffffffffffffffffff1673ffffffffffffffffffffffffffffffffffffffff16631ec6b60a6040518163ffffffff1660e01b8152600401600060405180830381600087803b1580156109ad57600080fd5b505af11580156109c1573d6000803e3d6000fd5b505050505b5b5050565b6109d3610a51565b600073ffffffffffffffffffffffffffffffffffffffff168173ffffffffffffffffffffffffffffffffffffffff1603610a455760006040517f1e4fbdf7000000000000000000000000000000000000000000000000000000008152600401610a3c9190610c5f565b60405180910390fd5b610a4e81610ad8565b50565b610a59610b9c565b73ffffffffffffffffffffffffffffffffffffffff16610a7761075b565b73ffffffffffffffffffffffffffffffffffffffff1614610ad657610a9a610b9c565b6040517f118cdaa7000000000000000000000000000000000000000000000000000000008152600401610acd9190610c5f565b60405180910390fd5b565b60008060009054906101000a900473ffffffffffffffffffffffffffffffffffffffff169050816000806101000a81548173ffffffffffffffffffffffffffffffffffffffff021916908373ffffffffffffffffffffffffffffffffffffffff1602179055508173ffffffffffffffffffffffffffffffffffffffff168173ffffffffffffffffffffffffffffffffffffffff167f8be0079c531659141344cd1fd0a4f28419497f9722a3daafe3b4186f6b6457e060405160405180910390a35050565b600033905090565b611ba4806111a483390190565b600080fd5b600080fd5b6000819050919050565b610bce81610bbb565b8114610bd957600080fd5b50565b600081359050610beb81610bc5565b92915050565b600060208284031215610c0757610c06610bb1565b5b6000610c1584828501610bdc565b91505092915050565b600073ffffffffffffffffffffffffffffffffffffffff82169050919050565b6000610c4982610c1e565b9050919050565b610c5981610c3e565b82525050565b6000602082019050610c746000830184610c50565b92915050565b60008115159050919050565b610c8f81610c7a565b82525050565b6000602082019050610caa6000830184610c86565b92915050565b610cb981610bbb565b82525050565b6000602082019050610cd46000830184610cb0565b92915050565b600080fd5b600080fd5b600080fd5b60008083601f840112610cff57610cfe610cda565b5b8235905067ffffffffffffffff811115610d1c57610d1b610cdf565b5b602083019150836001820283011115610d3857610d37610ce4565b5b9250929050565b60008060208385031215610d5657610d55610bb1565b5b600083013567ffffffffffffffff811115610d7457610d73610bb6565b5b610d8085828601610ce9565b92509250509250929050565b600081519050919050565b600082825260208201905092915050565b60005b83811015610dc6578082015181840152602081019050610dab565b60008484015250505050565b6000601f19601f8301169050919050565b6000610dee82610d8c565b610df88185610d97565b9350610e08818560208601610da8565b610e1181610dd2565b840191505092915050565b60006020820190508181036000830152610e368184610de3565b905092915050565b610e4781610c3e565b8114610e5257600080fd5b50565b600081359050610e6481610e3e565b92915050565b600060208284031215610e8057610e7f610bb1565b5b6000610e8e84828501610e55565b91505092915050565b7f4e487b7100000000000000000000000000000000000000000000000000000000600052601160045260246000fd5b6000610ed182610bbb565b9150610edc83610bbb565b9250828201905080821115610ef457610ef3610e97565b5b92915050565b7f54696d65206973206e6f74206f76657200000000000000000000000000000000600082015250565b6000610f30601083610d97565b9150610f3b82610efa565b602082019050919050565b60006020820190508181036000830152610f5f81610f23565b9050919050565b600081519050610f7581610bc5565b92915050565b600060208284031215610f9157610f90610bb1565b5b6000610f9f84828501610f66565b91505092915050565b7f4e487b7100000000000000000000000000000000000000000000000000000000600052603260045260246000fd5b82818337600083830152505050565b6000610ff28385610d97565b9350610fff838584610fd7565b61100883610dd2565b840190509392505050565b60006040820190506110286000830186610c50565b818103602083015261103b818486610fe6565b9050949350505050565b600061105082610bbb565b915061105b83610bbb565b925082820390508181111561107357611072610e97565b5b92915050565b600060408201905061108e6000830185610cb0565b61109b6020830184610c50565b9392505050565b7f4e487b7100000000000000000000000000000000000000000000000000000000600052602260045260246000fd5b600060028204905060018216806110e957607f821691505b6020821081036110fc576110fb6110a2565b5b50919050565b61110b81610c7a565b811461111657600080fd5b50565b60008151905061112881611102565b92915050565b60006020828403121561114457611143610bb1565b5b600061115284828501611119565b91505092915050565b600061116682610bbb565b91507fffffffffffffffffffffffffffffffffffffffffffffffffffffffffffffffff820361119857611197610e97565b5b60018201905091905056fe608060405234801561001057600080fd5b50604051611ba4380380611ba48339818101604052810190610032919061038e565b81600073ffffffffffffffffffffffffffffffffffffffff168173ffffffffffffffffffffffffffffffffffffffff16036100a55760006040517f1e4fbdf700000000000000000000000000000000000000000000000000000000815260040161009c91906103f9565b60405180910390fd5b6100b4816100f760201b60201c565b5080600190816100c49190610635565b506000600260006101000a81548160ff021916908360048111156100eb576100ea610707565b5b02179055505050610736565b60008060009054906101000a900473ffffffffffffffffffffffffffffffffffffffff169050816000806101000a81548173ffffffffffffffffffffffffffffffffffffffff021916908373ffffffffffffffffffffffffffffffffffffffff1602179055508173ffffffffffffffffffffffffffffffffffffffff168173ffffffffffffffffffffffffffffffffffffffff167f8be0079c531659141344cd1fd0a4f28419497f9722a3daafe3b4186f6b6457e060405160405180910390a35050565b6000604051905090565b600080fd5b600080fd5b600073ffffffffffffffffffffffffffffffffffffffff82169050919050565b60006101fa826101cf565b9050919050565b61020a816101ef565b811461021557600080fd5b50565b60008151905061022781610201565b92915050565b600080fd5b600080fd5b6000601f19601f8301169050919050565b7f4e487b7100000000000000000000000000000000000000000000000000000000600052604160045260246000fd5b61028082610237565b810181811067ffffffffffffffff8211171561029f5761029e610248565b5b80604052505050565b60006102b26101bb565b90506102be8282610277565b919050565b600067ffffffffffffffff8211156102de576102dd610248565b5b6102e782610237565b9050602081019050919050565b60005b838110156103125780820151818401526020810190506102f7565b60008484015250505050565b600061033161032c846102c3565b6102a8565b90508281526020810184848401111561034d5761034c610232565b5b6103588482856102f4565b509392505050565b600082601f8301126103755761037461022d565b5b815161038584826020860161031e565b91505092915050565b600080604083850312156103a5576103a46101c5565b5b60006103b385828601610218565b925050602083015167ffffffffffffffff8111156103d4576103d36101ca565b5b6103e085828601610360565b9150509250929050565b6103f3816101ef565b82525050565b600060208201905061040e60008301846103ea565b92915050565b600081519050919050565b7f4e487b7100000000000000000000000000000000000000000000000000000000600052602260045260246000fd5b6000600282049050600182168061046657607f821691505b6020821081036104795761047861041f565b5b50919050565b60008190508160005260206000209050919050565b60006020601f8301049050919050565b600082821b905092915050565b6000600883026104e17fffffffffffffffffffffffffffffffffffffffffffffffffffffffffffffffff826104a4565b6104eb86836104a4565b95508019841693508086168417925050509392505050565b6000819050919050565b6000819050919050565b600061053261052d61052884610503565b61050d565b610503565b9050919050565b6000819050919050565b61054c83610517565b61056061055882610539565b8484546104b1565b825550505050565b600090565b610575610568565b610580818484610543565b505050565b5b818110156105a45761059960008261056d565b600181019050610586565b5050565b601f8211156105e9576105ba8161047f565b6105c384610494565b810160208510156105d2578190505b6105e66105de85610494565b830182610585565b50505b505050565b600082821c905092915050565b600061060c600019846008026105ee565b1980831691505092915050565b600061062583836105fb565b9150826002028217905092915050565b61063e82610414565b67ffffffffffffffff81111561065757610656610248565b5b610661825461044e565b61066c8282856105a8565b600060209050601f83116001811461069f576000841561068d578287015190505b6106978582610619565b8655506106ff565b601f1984166106ad8661047f565b60005b828110156106d5578489015182556001820191506020850194506020810190506106b0565b868310156106f257848901516106ee601f8916826105fb565b8355505b6001600288020188555050505b505050505050565b7f4e487b7100000000000000000000000000000000000000000000000000000000600052602160045260246000fd5b61145f806107456000396000f3fe6080604052600436106100e85760003560e01c80637284e4161161008a5780639e075449116100595780639e0754491461029f578063a9709c0c146102a9578063c3403ddf146102b3578063f2fde38b146102de576100e8565b80637284e416146101e15780638801bf911461020c5780638da5cb5b14610249578063919c4b0a14610274576100e8565b80631ec6b60a116100c65780631ec6b60a146101805780633ccfd60b1461019757806351045fab146101a1578063715018a6146101ca576100e8565b80630f7a4590146100ed57806311dba1811461011857806312897d0714610155575b600080fd5b3480156100f957600080fd5b50610102610307565b60405161010f9190610e8b565b60405180910390f35b34801561012457600080fd5b5061013f600480360381019061013a9190610f09565b61031a565b60405161014c9190610f4f565b60405180910390f35b34801561016157600080fd5b5061016a610332565b6040516101779190610f4f565b60405180910390f35b34801561018c57600080fd5b50610195610338565b005b61019f61036d565b005b3480156101ad57600080fd5b506101c860048036038101906101c39190610f96565b610819565b005b3480156101d657600080fd5b506101df6108af565b005b3480156101ed57600080fd5b506101f66108c3565b6040516102039190611053565b60405180910390f35b34801561021857600080fd5b50610233600480360381019061022e9190610f09565b610951565b6040516102409190610f4f565b60405180910390f35b34801561025557600080fd5b5061025e610969565b60405161026b9190611084565b60405180910390f35b34801561028057600080fd5b50610289610992565b6040516102969190610f4f565b60405180910390f35b6102a7610998565b005b6102b1610a49565b005b3480156102bf57600080fd5b506102c8610afa565b6040516102d59190610e8b565b60405180910390f35b3480156102ea57600080fd5b5061030560048036038101906103009190610f09565b610bcd565b005b600260019054906101000a900460ff1681565b60066020528060005260406000206000915090505481565b60045481565b610340610c53565b6001600260006101000a81548160ff021916908360048111156103665761036561109f565b5b0217905550565b600260048111156103815761038061109f565b5b600260009054906101000a900460ff1660048111156103a3576103a261109f565b5b0361067d576000600560003373ffffffffffffffffffffffffffffffffffffffff1673ffffffffffffffffffffffffffffffffffffffff1681526020019081526020016000205490506000600660003373ffffffffffffffffffffffffffffffffffffffff1673ffffffffffffffffffffffffffffffffffffffff168152602001908152602001600020549050600082118061043f5750600081115b61047e576040517f08c379a00000000000000000000000000000000000000000000000000000000081526004016104759061111a565b60405180910390fd5b6000600560003373ffffffffffffffffffffffffffffffffffffffff1673ffffffffffffffffffffffffffffffffffffffff168152602001908152602001600020819055506000600660003373ffffffffffffffffffffffffffffffffffffffff1673ffffffffffffffffffffffffffffffffffffffff1681526020019081526020016000208190555060008211156105bf5760003373ffffffffffffffffffffffffffffffffffffffff16836040516105379061116b565b60006040518083038185875af1925050503d8060008114610574576040519150601f19603f3d011682016040523d82523d6000602084013e610579565b606091505b50509050806105bd576040517f08c379a00000000000000000000000000000000000000000000000000000000081526004016105b4906111cc565b60405180910390fd5b505b60008111156106765760003373ffffffffffffffffffffffffffffffffffffffff16826040516105ee9061116b565b60006040518083038185875af1925050503d806000811461062b576040519150601f19603f3d011682016040523d82523d6000602084013e610630565b606091505b5050905080610674576040517f08c379a000000000000000000000000000000000000000000000000000000000815260040161066b90611238565b60405180910390fd5b505b5050610817565b6004808111156106905761068f61109f565b5b600260009054906101000a900460ff1660048111156106b2576106b161109f565b5b036108165760006004546003546106c99190611287565b6106d1610cda565b6106db91906112bb565b90506000600560003373ffffffffffffffffffffffffffffffffffffffff1673ffffffffffffffffffffffffffffffffffffffff168152602001908152602001600020819055506000600660003373ffffffffffffffffffffffffffffffffffffffff1673ffffffffffffffffffffffffffffffffffffffff1681526020019081526020016000208190555060003373ffffffffffffffffffffffffffffffffffffffff168260405161078d9061116b565b60006040518083038185875af1925050503d80600081146107ca576040519150601f19603f3d011682016040523d82523d6000602084013e6107cf565b606091505b5050905080610813576040517f08c379a000000000000000000000000000000000000000000000000000000000815260040161080a90611349565b60405180910390fd5b50505b5b565b610821610c53565b6004600260006101000a81548160ff021916908360048111156108475761084661109f565b5b021790555080600260016101000a81548160ff0219169083151502179055507f0d91d7e2574d629f04252d615142935e3cc2a9d06eeda1418bac7a71d3b2b4dd600260019054906101000a900460ff166040516108a49190610e8b565b60405180910390a150565b6108b7610c53565b6108c16000610da4565b565b600180546108d090611398565b80601f01602080910402602001604051908101604052809291908181526020018280546108fc90611398565b80156109495780601f1061091e57610100808354040283529160200191610949565b820191906000526020600020905b81548152906001019060200180831161092c57829003601f168201915b505050505081565b60056020528060005260406000206000915090505481565b60008060009054906101000a900473ffffffffffffffffffffffffffffffffffffffff16905090565b60035481565b600160048111156109ac576109ab61109f565b5b600260009054906101000a900460ff1660048111156109ce576109cd61109f565b5b146109d857600080fd5b34600560003373ffffffffffffffffffffffffffffffffffffffff1673ffffffffffffffffffffffffffffffffffffffff1681526020019081526020016000206000828254610a279190611287565b925050819055503460036000828254610a409190611287565b92505081905550565b60016004811115610a5d57610a5c61109f565b5b600260009054906101000a900460ff166004811115610a7f57610a7e61109f565b5b14610a8957600080fd5b34600660003373ffffffffffffffffffffffffffffffffffffffff1673ffffffffffffffffffffffffffffffffffffffff1681526020019081526020016000206000828254610ad89190611287565b925050819055503460046000828254610af19190611287565b92505081905550565b6000610b04610c53565b60035460045410610b6e5760028060006101000a81548160ff02191690836004811115610b3457610b3361109f565b5b02179055507fd9b98126754488697fc3a0bc3e9712c57e60e8e41bc7b8c24fee5fa948d3e9dd60405160405180910390a160009050610bca565b6003600260006101000a81548160ff02191690836004811115610b9457610b9361109f565b5b02179055507fbf9067c9d0ba76fdfcb416bccec45fe88cda5437e5220b5a31d49b89d909567b60405160405180910390a1600190505b90565b610bd5610c53565b600073ffffffffffffffffffffffffffffffffffffffff168173ffffffffffffffffffffffffffffffffffffffff1603610c475760006040517f1e4fbdf7000000000000000000000000000000000000000000000000000000008152600401610c3e9190611084565b60405180910390fd5b610c5081610da4565b50565b610c5b610e68565b73ffffffffffffffffffffffffffffffffffffffff16610c79610969565b73ffffffffffffffffffffffffffffffffffffffff1614610cd857610c9c610e68565b6040517f118cdaa7000000000000000000000000000000000000000000000000000000008152600401610ccf9190611084565b60405180910390fd5b565b6000600260019054906101000a900460ff1615610d4b576000600560003373ffffffffffffffffffffffffffffffffffffffff1673ffffffffffffffffffffffffffffffffffffffff16815260200190815260200160002054905060035481610d4391906113f8565b915050610da1565b6000600660003373ffffffffffffffffffffffffffffffffffffffff1673ffffffffffffffffffffffffffffffffffffffff16815260200190815260200160002054905060045481610d9d91906113f8565b9150505b90565b60008060009054906101000a900473ffffffffffffffffffffffffffffffffffffffff169050816000806101000a81548173ffffffffffffffffffffffffffffffffffffffff021916908373ffffffffffffffffffffffffffffffffffffffff1602179055508173ffffffffffffffffffffffffffffffffffffffff168173ffffffffffffffffffffffffffffffffffffffff167f8be0079c531659141344cd1fd0a4f28419497f9722a3daafe3b4186f6b6457e060405160405180910390a35050565b600033905090565b60008115159050919050565b610e8581610e70565b82525050565b6000602082019050610ea06000830184610e7c565b92915050565b600080fd5b600073ffffffffffffffffffffffffffffffffffffffff82169050919050565b6000610ed682610eab565b9050919050565b610ee681610ecb565b8114610ef157600080fd5b50565b600081359050610f0381610edd565b92915050565b600060208284031215610f1f57610f1e610ea6565b5b6000610f2d84828501610ef4565b91505092915050565b6000819050919050565b610f4981610f36565b82525050565b6000602082019050610f646000830184610f40565b92915050565b610f7381610e70565b8114610f7e57600080fd5b50565b600081359050610f9081610f6a565b92915050565b600060208284031215610fac57610fab610ea6565b5b6000610fba84828501610f81565b91505092915050565b600081519050919050565b600082825260208201905092915050565b60005b83811015610ffd578082015181840152602081019050610fe2565b60008484015250505050565b6000601f19601f8301169050919050565b600061102582610fc3565b61102f8185610fce565b935061103f818560208601610fdf565b61104881611009565b840191505092915050565b6000602082019050818103600083015261106d818461101a565b905092915050565b61107e81610ecb565b82525050565b60006020820190506110996000830184611075565b92915050565b7f4e487b7100000000000000000000000000000000000000000000000000000000600052602160045260246000fd5b7f4e6f2066756e647320746f207769746864726177000000000000000000000000600082015250565b6000611104601483610fce565b915061110f826110ce565b602082019050919050565b60006020820190508181036000830152611133816110f7565b9050919050565b600081905092915050565b50565b600061115560008361113a565b915061116082611145565b600082019050919050565b600061117682611148565b9150819050919050565b7f5769746864726177616c206f662027596573272066756e6473206661696c6564600082015250565b60006111b6602083610fce565b91506111c182611180565b602082019050919050565b600060208201905081810360008301526111e5816111a9565b9050919050565b7f5769746864726177616c206f6620274e6f272066756e6473206661696c656400600082015250565b6000611222601f83610fce565b915061122d826111ec565b602082019050919050565b6000602082019050818103600083015261125181611215565b9050919050565b7f4e487b7100000000000000000000000000000000000000000000000000000000600052601160045260246000fd5b600061129282610f36565b915061129d83610f36565b92508282019050808211156112b5576112b4611258565b5b92915050565b60006112c682610f36565b91506112d183610f36565b92508282026112df81610f36565b915082820484148315176112f6576112f5611258565b5b5092915050565b7f436c61696d696e672072657761726473206661696c6564000000000000000000600082015250565b6000611333601783610fce565b915061133e826112fd565b602082019050919050565b6000602082019050818103600083015261136281611326565b9050919050565b7f4e487b7100000000000000000000000000000000000000000000000000000000600052602260045260246000fd5b600060028204905060018216806113b057607f821691505b6020821081036113c3576113c2611369565b5b50919050565b7f4e487b7100000000000000000000000000000000000000000000000000000000600052601260045260246000fd5b600061140382610f36565b915061140e83610f36565b92508261141e5761141d6113c9565b5b82820490509291505056fea2646970667358221220af258af762ed538b37aa6579ac329978841fc67a3eb72828f61e0928b1627b1464736f6c634300081a0033a26469706673582212209d8ab7a78394aed70d64cf63764967a501bbaae5694802bb962244674f27fb6a64736f6c634300081a00336080604052348015600f57600080fd5b506101f58061001f6000396000f3fe608060405234801561001057600080fd5b50600436106100365760003560e01c806382dcc26d1461003b578063de29278914610057575b600080fd5b610055600480360381019061005091906100fe565b610075565b005b61005f6100ba565b60405161006c919061013a565b60405180910390f35b806000819055507fb44649ee09be3c07f6be7f169266f5027caa7f0eec61d4b7e409cbe15d7e32f6306000546040516100af929190610196565b60405180910390a150565b60008054905090565b600080fd5b6000819050919050565b6100db816100c8565b81146100e657600080fd5b50565b6000813590506100f8816100d2565b92915050565b600060208284031215610114576101136100c3565b5b6000610122848285016100e9565b91505092915050565b610134816100c8565b82525050565b600060208201905061014f600083018461012b565b92915050565b600073ffffffffffffffffffffffffffffffffffffffff82169050919050565b600061018082610155565b9050919050565b61019081610175565b82525050565b60006040820190506101ab6000830185610187565b6101b8602083018461012b565b939250505056fea2646970667358221220393528d01fd00a0ba20bbb4ca9c163696b6208292237f069cdd509f1020f505264736f6c634300081a0033",
  "linkReferences": {},
  "deployedLinkReferences": {}
}