{
  "_format": "hh-sol-artifact-1",
  "contractName": "FutarchyProposal",
  "sourceName": "contracts/FutarchyProposal.sol",
  "abi": [
    {
      "inputs": [
        {
          "internalType": "address",
          "name": "_owner",
          "type": "address"
        },
        {
          "internalType": "string",
          "name": "_cid",
          "type": "string"
        }
      ],
      "stateMutability": "nonpayable",
      "type": "constructor"
    },
    {
      "inputs": [
        {
          "internalType": "address",
          "name": "owner",
          "type": "address"
        }
      ],
      "name": "OwnableInvalidOwner",
      "type": "error"
    },
    {
      "inputs": [
        {
          "internalType": "address",
          "name": "account",
          "type": "address"
        }
      ],
      "name": "OwnableUnauthorizedAccount",
      "type": "error"
    },
    {
      "anonymous": false,
      "inputs": [
        {
          "indexed": true,
          "internalType": "address",
          "name": "previousOwner",
          "type": "address"
        },
        {
          "indexed": true,
          "internalType": "address",
          "name": "newOwner",
          "type": "address"
        }
      ],
      "name": "OwnershipTransferred",
      "type": "event"
    },
    {
      "anonymous": false,
      "inputs": [],
      "name": "ProposalAccepted",
      "type": "event"
    },
    {
      "anonymous": false,
      "inputs": [],
      "name": "ProposalCanceled",
      "type": "event"
    },
    {
      "anonymous": false,
      "inputs": [
        {
          "indexed": false,
          "internalType": "bool",
          "name": "goalAchieved",
          "type": "bool"
        }
      ],
      "name": "ProposalClosed",
      "type": "event"
    },
    {
      "anonymous": false,
      "inputs": [],
      "name": "ProposalStarted",
      "type": "event"
    },
    {
      "inputs": [],
      "name": "balanceNo",
      "outputs": [
        {
          "internalType": "uint256",
          "name": "",
          "type": "uint256"
        }
      ],
      "stateMutability": "view",
      "type": "function"
    },
    {
      "inputs": [],
      "name": "balanceYes",
      "outputs": [
        {
          "internalType": "uint256",
          "name": "",
          "type": "uint256"
        }
      ],
      "stateMutability": "view",
      "type": "function"
    },
    {
      "inputs": [],
      "name": "buyNo",
      "outputs": [],
      "stateMutability": "payable",
      "type": "function"
    },
    {
      "inputs": [],
      "name": "buyYes",
      "outputs": [],
      "stateMutability": "payable",
      "type": "function"
    },
    {
      "inputs": [],
      "name": "endVoting",
      "outputs": [
        {
          "internalType": "bool",
          "name": "",
          "type": "bool"
        }
      ],
      "stateMutability": "nonpayable",
      "type": "function"
    },
    {
      "inputs": [],
      "name": "getProposal",
      "outputs": [
        {
          "components": [
            {
              "internalType": "address",
              "name": "addr",
              "type": "address"
            },
            {
              "internalType": "string",
              "name": "remoteCid",
              "type": "string"
            },
            {
              "internalType": "enum FutarchyProposal.ProposalStatus",
              "name": "status",
              "type": "uint8"
            },
            {
              "internalType": "uint256",
              "name": "balanceYes",
              "type": "uint256"
            },
            {
              "internalType": "uint256",
              "name": "balanceNo",
              "type": "uint256"
            },
            {
              "internalType": "bool",
              "name": "goalAchieved",
              "type": "bool"
            }
          ],
          "internalType": "struct FutarchyProposal.Proposal",
          "name": "",
          "type": "tuple"
        }
      ],
      "stateMutability": "view",
      "type": "function"
    },
    {
      "inputs": [],
      "name": "goalAchieved",
      "outputs": [
        {
          "internalType": "bool",
          "name": "",
          "type": "bool"
        }
      ],
      "stateMutability": "view",
      "type": "function"
    },
    {
      "inputs": [
        {
          "internalType": "address",
          "name": "",
          "type": "address"
        }
      ],
      "name": "mappingNo",
      "outputs": [
        {
          "internalType": "uint256",
          "name": "",
          "type": "uint256"
        }
      ],
      "stateMutability": "view",
      "type": "function"
    },
    {
      "inputs": [
        {
          "internalType": "address",
          "name": "",
          "type": "address"
        }
      ],
      "name": "mappingYes",
      "outputs": [
        {
          "internalType": "uint256",
          "name": "",
          "type": "uint256"
        }
      ],
      "stateMutability": "view",
      "type": "function"
    },
    {
      "inputs": [],
      "name": "owner",
      "outputs": [
        {
          "internalType": "address",
          "name": "",
          "type": "address"
        }
      ],
      "stateMutability": "view",
      "type": "function"
    },
    {
      "inputs": [],
      "name": "remoteCid",
      "outputs": [
        {
          "internalType": "string",
          "name": "",
          "type": "string"
        }
      ],
      "stateMutability": "view",
      "type": "function"
    },
    {
      "inputs": [],
      "name": "renounceOwnership",
      "outputs": [],
      "stateMutability": "nonpayable",
      "type": "function"
    },
    {
      "inputs": [],
      "name": "startVoting",
      "outputs": [],
      "stateMutability": "nonpayable",
      "type": "function"
    },
    {
      "inputs": [
        {
          "internalType": "bool",
          "name": "_goalAchieved",
          "type": "bool"
        }
      ],
      "name": "tallyGoal",
      "outputs": [],
      "stateMutability": "nonpayable",
      "type": "function"
    },
    {
      "inputs": [
        {
          "internalType": "address",
          "name": "newOwner",
          "type": "address"
        }
      ],
      "name": "transferOwnership",
      "outputs": [],
      "stateMutability": "nonpayable",
      "type": "function"
    },
    {
      "inputs": [],
      "name": "withdraw",
      "outputs": [],
      "stateMutability": "payable",
      "type": "function"
    }
  ],
  "bytecode": "0x608060405234801561001057600080fd5b50604051610fd1380380610fd183398101604081905261002f916100ec565b816001600160a01b03811661005e57604051631e4fbdf760e01b81526000600482015260240160405180910390fd5b61006781610086565b5060016100748282610261565b50506002805460ff191690555061031f565b600080546001600160a01b038381166001600160a01b0319831681178455604051919092169283917f8be0079c531659141344cd1fd0a4f28419497f9722a3daafe3b4186f6b6457e09190a35050565b634e487b7160e01b600052604160045260246000fd5b600080604083850312156100ff57600080fd5b82516001600160a01b038116811461011657600080fd5b60208401519092506001600160401b0381111561013257600080fd5b8301601f8101851361014357600080fd5b80516001600160401b0381111561015c5761015c6100d6565b604051601f8201601f19908116603f011681016001600160401b038111828210171561018a5761018a6100d6565b6040528181528282016020018710156101a257600080fd5b60005b828110156101c1576020818501810151838301820152016101a5565b506000602083830101528093505050509250929050565b600181811c908216806101ec57607f821691505b60208210810361020c57634e487b7160e01b600052602260045260246000fd5b50919050565b601f82111561025c57806000526020600020601f840160051c810160208510156102395750805b601f840160051c820191505b818110156102595760008155600101610245565b50505b505050565b81516001600160401b0381111561027a5761027a6100d6565b61028e8161028884546101d8565b84610212565b6020601f8211600181146102c257600083156102aa5750848201515b600019600385901b1c1916600184901b178455610259565b600084815260208120601f198516915b828110156102f257878501518255602094850194600190920191016102d2565b50848210156103105786840151600019600387901b60f8161c191681555b50505050600190811b01905550565b610ca38061032e6000396000f3fe6080604052600436106100f35760003560e01c80638da5cb5b1161008a578063b9e2bea011610059578063b9e2bea01461024c578063c3403ddf1461026e578063daf8bd5314610283578063f2fde38b146102a557600080fd5b80638da5cb5b146101fe578063919c4b0a146102265780639e0754491461023c578063a9709c0c1461024457600080fd5b80633ccfd60b116100c65780633ccfd60b1461019457806351045fab1461019c578063715018a6146101bc5780638801bf91146101d157600080fd5b80630f7a4590146100f857806311dba1811461012c57806312897d07146101675780631ec6b60a1461017d575b600080fd5b34801561010457600080fd5b5060025461011790610100900460ff1681565b60405190151581526020015b60405180910390f35b34801561013857600080fd5b50610159610147366004610a81565b60066020526000908152604090205481565b604051908152602001610123565b34801561017357600080fd5b5061015960045481565b34801561018957600080fd5b506101926102c5565b005b6101926102dc565b3480156101a857600080fd5b506101926101b7366004610ab1565b6105c5565b3480156101c857600080fd5b50610192610628565b3480156101dd57600080fd5b506101596101ec366004610a81565b60056020526000908152604090205481565b34801561020a57600080fd5b506000546040516001600160a01b039091168152602001610123565b34801561023257600080fd5b5061015960035481565b61019261063a565b61019261069c565b34801561025857600080fd5b506102616106f7565b6040516101239190610b2f565b34801561027a57600080fd5b50610117610859565b34801561028f57600080fd5b506102986108e5565b6040516101239190610bb8565b3480156102b157600080fd5b506101926102c0366004610a81565b610973565b6102cd6109b1565b6002805460ff19166001179055565b6002805460ff1660048111156102f4576102f4610b19565b036104cc5733600090815260056020908152604080832054600690925290912054811515806103235750600081115b61036b5760405162461bcd60e51b81526020600482015260146024820152734e6f2066756e647320746f20776974686472617760601b60448201526064015b60405180910390fd5b3360009081526005602090815260408083208390556006909152812055811561042857604051600090339084908381818185875af1925050503d80600081146103d0576040519150601f19603f3d011682016040523d82523d6000602084013e6103d5565b606091505b50509050806104265760405162461bcd60e51b815260206004820181905260248201527f5769746864726177616c206f662027596573272066756e6473206661696c65646044820152606401610362565b505b80156104c857604051600090339083908381818185875af1925050503d8060008114610470576040519150601f19603f3d011682016040523d82523d6000602084013e610475565b606091505b50509050806104c65760405162461bcd60e51b815260206004820152601f60248201527f5769746864726177616c206f6620274e6f272066756e6473206661696c6564006044820152606401610362565b505b5050565b600460025460ff1660048111156104e5576104e5610b19565b036105c35760006004546003546104fc9190610be1565b6105046109de565b61050e9190610bfa565b3360008181526005602090815260408083208390556006909152808220829055519293509183908381818185875af1925050503d806000811461056d576040519150601f19603f3d011682016040523d82523d6000602084013e610572565b606091505b50509050806104c85760405162461bcd60e51b815260206004820152601760248201527f436c61696d696e672072657761726473206661696c65640000000000000000006044820152606401610362565b565b6105cd6109b1565b6002805482151561010090810261ffff199092169190911760041791829055604051910460ff16151581527f0d91d7e2574d629f04252d615142935e3cc2a9d06eeda1418bac7a71d3b2b4dd9060200160405180910390a150565b6106306109b1565b6105c36000610a31565b600160025460ff16600481111561065357610653610b19565b1461065d57600080fd5b336000908152600560205260408120805434929061067c908490610be1565b9250508190555034600360008282546106959190610be1565b9091555050565b600160025460ff1660048111156106b5576106b5610b19565b146106bf57600080fd5b33600090815260066020526040812080543492906106de908490610be1565b9250508190555034600460008282546106959190610be1565b6107326040805160c0810182526000808252606060208301529091820190815260200160008152602001600081526020016000151581525090565b61076d6040805160c0810182526000808252606060208301529091820190815260200160008152602001600081526020016000151581525090565b3081526001805461077d90610c11565b80601f01602080910402602001604051908101604052809291908181526020018280546107a990610c11565b80156107f65780601f106107cb576101008083540402835291602001916107f6565b820191906000526020600020905b8154815290600101906020018083116107d957829003601f168201915b50505050506020820152600254604082019060ff16600481111561081c5761081c610b19565b9081600481111561082f5761082f610b19565b90525060035460608201526004546080820152600254610100900460ff16151560a0820152919050565b60006108636109b1565b600354600454106108a9576002805460ff1916811790556040517fd9b98126754488697fc3a0bc3e9712c57e60e8e41bc7b8c24fee5fa948d3e9dd90600090a150600090565b6002805460ff191660031790556040517fbf9067c9d0ba76fdfcb416bccec45fe88cda5437e5220b5a31d49b89d909567b90600090a150600190565b600180546108f290610c11565b80601f016020809104026020016040519081016040528092919081815260200182805461091e90610c11565b801561096b5780601f106109405761010080835404028352916020019161096b565b820191906000526020600020905b81548152906001019060200180831161094e57829003601f168201915b505050505081565b61097b6109b1565b6001600160a01b0381166109a557604051631e4fbdf760e01b815260006004820152602401610362565b6109ae81610a31565b50565b6000546001600160a01b031633146105c35760405163118cdaa760e01b8152336004820152602401610362565b600254600090610100900460ff1615610a145733600090815260056020526040902054600354610a0e9082610c4b565b91505090565b33600090815260066020526040902054600454610a0e9082610c4b565b600080546001600160a01b038381166001600160a01b0319831681178455604051919092169283917f8be0079c531659141344cd1fd0a4f28419497f9722a3daafe3b4186f6b6457e09190a35050565b600060208284031215610a9357600080fd5b81356001600160a01b0381168114610aaa57600080fd5b9392505050565b600060208284031215610ac357600080fd5b81358015158114610aaa57600080fd5b6000815180845260005b81811015610af957602081850181015186830182015201610add565b506000602082860101526020601f19601f83011685010191505092915050565b634e487b7160e01b600052602160045260246000fd5b602080825282516001600160a01b03168282015282015160c06040830152600090610b5d60e0840182610ad3565b9050604084015160058110610b8257634e487b7160e01b600052602160045260246000fd5b8060608501525060608401516080840152608084015160a084015260a0840151610bb060c085018215159052565b509392505050565b602081526000610aaa6020830184610ad3565b634e487b7160e01b600052601160045260246000fd5b80820180821115610bf457610bf4610bcb565b92915050565b8082028115828204841417610bf457610bf4610bcb565b600181811c90821680610c2557607f821691505b602082108103610c4557634e487b7160e01b600052602260045260246000fd5b50919050565b600082610c6857634e487b7160e01b600052601260045260246000fd5b50049056fea2646970667358221220c92f89869580d326a4c9cc47498dd2f9bf9fe8d2646e7cf5f5969bda3be664fa64736f6c634300081a0033",
  "linkReferences": {},
  "deployedLinkReferences": {}
}