{
  "_format": "hh-sol-artifact-1",
  "contractName": "FutarchyProposal",
  "sourceName": "contracts/FutarchyProposal.sol",
  "abi": [
    {
      "inputs": [
        {
          "internalType": "address",
          "name": "_owner",
          "type": "address"
        },
        {
          "internalType": "string",
          "name": "_description",
          "type": "string"
        }
      ],
      "stateMutability": "nonpayable",
      "type": "constructor"
    },
    {
      "inputs": [
        {
          "internalType": "address",
          "name": "owner",
          "type": "address"
        }
      ],
      "name": "OwnableInvalidOwner",
      "type": "error"
    },
    {
      "inputs": [
        {
          "internalType": "address",
          "name": "account",
          "type": "address"
        }
      ],
      "name": "OwnableUnauthorizedAccount",
      "type": "error"
    },
    {
      "anonymous": false,
      "inputs": [
        {
          "indexed": true,
          "internalType": "address",
          "name": "previousOwner",
          "type": "address"
        },
        {
          "indexed": true,
          "internalType": "address",
          "name": "newOwner",
          "type": "address"
        }
      ],
      "name": "OwnershipTransferred",
      "type": "event"
    },
    {
      "anonymous": false,
      "inputs": [],
      "name": "ProposalAccepted",
      "type": "event"
    },
    {
      "anonymous": false,
      "inputs": [],
      "name": "ProposalCanceled",
      "type": "event"
    },
    {
      "anonymous": false,
      "inputs": [
        {
          "indexed": false,
          "internalType": "bool",
          "name": "goalAchieved",
          "type": "bool"
        }
      ],
      "name": "ProposalClosed",
      "type": "event"
    },
    {
      "anonymous": false,
      "inputs": [],
      "name": "ProposalStarted",
      "type": "event"
    },
    {
      "inputs": [],
      "name": "balanceNo",
      "outputs": [
        {
          "internalType": "uint256",
          "name": "",
          "type": "uint256"
        }
      ],
      "stateMutability": "view",
      "type": "function"
    },
    {
      "inputs": [],
      "name": "balanceYes",
      "outputs": [
        {
          "internalType": "uint256",
          "name": "",
          "type": "uint256"
        }
      ],
      "stateMutability": "view",
      "type": "function"
    },
    {
      "inputs": [],
      "name": "buyNo",
      "outputs": [],
      "stateMutability": "payable",
      "type": "function"
    },
    {
      "inputs": [],
      "name": "buyYes",
      "outputs": [],
      "stateMutability": "payable",
      "type": "function"
    },
    {
      "inputs": [],
      "name": "description",
      "outputs": [
        {
          "internalType": "string",
          "name": "",
          "type": "string"
        }
      ],
      "stateMutability": "view",
      "type": "function"
    },
    {
      "inputs": [],
      "name": "endVoting",
      "outputs": [
        {
          "internalType": "bool",
          "name": "",
          "type": "bool"
        }
      ],
      "stateMutability": "nonpayable",
      "type": "function"
    },
    {
      "inputs": [],
      "name": "getProposal",
      "outputs": [
        {
          "components": [
            {
              "internalType": "address",
              "name": "addr",
              "type": "address"
            },
            {
              "internalType": "enum FutarchyProposal.ProposalStatus",
              "name": "status",
              "type": "uint8"
            },
            {
              "internalType": "uint256",
              "name": "balanceYes",
              "type": "uint256"
            },
            {
              "internalType": "uint256",
              "name": "balanceNo",
              "type": "uint256"
            },
            {
              "internalType": "bool",
              "name": "goalAchieved",
              "type": "bool"
            }
          ],
          "internalType": "struct FutarchyProposal.Proposal",
          "name": "",
          "type": "tuple"
        }
      ],
      "stateMutability": "view",
      "type": "function"
    },
    {
      "inputs": [],
      "name": "goalAchieved",
      "outputs": [
        {
          "internalType": "bool",
          "name": "",
          "type": "bool"
        }
      ],
      "stateMutability": "view",
      "type": "function"
    },
    {
      "inputs": [
        {
          "internalType": "address",
          "name": "",
          "type": "address"
        }
      ],
      "name": "mappingNo",
      "outputs": [
        {
          "internalType": "uint256",
          "name": "",
          "type": "uint256"
        }
      ],
      "stateMutability": "view",
      "type": "function"
    },
    {
      "inputs": [
        {
          "internalType": "address",
          "name": "",
          "type": "address"
        }
      ],
      "name": "mappingYes",
      "outputs": [
        {
          "internalType": "uint256",
          "name": "",
          "type": "uint256"
        }
      ],
      "stateMutability": "view",
      "type": "function"
    },
    {
      "inputs": [],
      "name": "owner",
      "outputs": [
        {
          "internalType": "address",
          "name": "",
          "type": "address"
        }
      ],
      "stateMutability": "view",
      "type": "function"
    },
    {
      "inputs": [],
      "name": "renounceOwnership",
      "outputs": [],
      "stateMutability": "nonpayable",
      "type": "function"
    },
    {
      "inputs": [],
      "name": "startVoting",
      "outputs": [],
      "stateMutability": "nonpayable",
      "type": "function"
    },
    {
      "inputs": [
        {
          "internalType": "bool",
          "name": "_goalAchieved",
          "type": "bool"
        }
      ],
      "name": "tallyGoal",
      "outputs": [],
      "stateMutability": "nonpayable",
      "type": "function"
    },
    {
      "inputs": [
        {
          "internalType": "address",
          "name": "newOwner",
          "type": "address"
        }
      ],
      "name": "transferOwnership",
      "outputs": [],
      "stateMutability": "nonpayable",
      "type": "function"
    },
    {
      "inputs": [],
      "name": "withdraw",
      "outputs": [],
      "stateMutability": "payable",
      "type": "function"
    }
  ],
  "bytecode": "0x608060405234801561001057600080fd5b50604051611df0380380611df08339818101604052810190610032919061038e565b81600073ffffffffffffffffffffffffffffffffffffffff168173ffffffffffffffffffffffffffffffffffffffff16036100a55760006040517f1e4fbdf700000000000000000000000000000000000000000000000000000000815260040161009c91906103f9565b60405180910390fd5b6100b4816100f760201b60201c565b5080600190816100c49190610635565b506000600260006101000a81548160ff021916908360048111156100eb576100ea610707565b5b02179055505050610736565b60008060009054906101000a900473ffffffffffffffffffffffffffffffffffffffff169050816000806101000a81548173ffffffffffffffffffffffffffffffffffffffff021916908373ffffffffffffffffffffffffffffffffffffffff1602179055508173ffffffffffffffffffffffffffffffffffffffff168173ffffffffffffffffffffffffffffffffffffffff167f8be0079c531659141344cd1fd0a4f28419497f9722a3daafe3b4186f6b6457e060405160405180910390a35050565b6000604051905090565b600080fd5b600080fd5b600073ffffffffffffffffffffffffffffffffffffffff82169050919050565b60006101fa826101cf565b9050919050565b61020a816101ef565b811461021557600080fd5b50565b60008151905061022781610201565b92915050565b600080fd5b600080fd5b6000601f19601f8301169050919050565b7f4e487b7100000000000000000000000000000000000000000000000000000000600052604160045260246000fd5b61028082610237565b810181811067ffffffffffffffff8211171561029f5761029e610248565b5b80604052505050565b60006102b26101bb565b90506102be8282610277565b919050565b600067ffffffffffffffff8211156102de576102dd610248565b5b6102e782610237565b9050602081019050919050565b60005b838110156103125780820151818401526020810190506102f7565b60008484015250505050565b600061033161032c846102c3565b6102a8565b90508281526020810184848401111561034d5761034c610232565b5b6103588482856102f4565b509392505050565b600082601f8301126103755761037461022d565b5b815161038584826020860161031e565b91505092915050565b600080604083850312156103a5576103a46101c5565b5b60006103b385828601610218565b925050602083015167ffffffffffffffff8111156103d4576103d36101ca565b5b6103e085828601610360565b9150509250929050565b6103f3816101ef565b82525050565b600060208201905061040e60008301846103ea565b92915050565b600081519050919050565b7f4e487b7100000000000000000000000000000000000000000000000000000000600052602260045260246000fd5b6000600282049050600182168061046657607f821691505b6020821081036104795761047861041f565b5b50919050565b60008190508160005260206000209050919050565b60006020601f8301049050919050565b600082821b905092915050565b6000600883026104e17fffffffffffffffffffffffffffffffffffffffffffffffffffffffffffffffff826104a4565b6104eb86836104a4565b95508019841693508086168417925050509392505050565b6000819050919050565b6000819050919050565b600061053261052d61052884610503565b61050d565b610503565b9050919050565b6000819050919050565b61054c83610517565b61056061055882610539565b8484546104b1565b825550505050565b600090565b610575610568565b610580818484610543565b505050565b5b818110156105a45761059960008261056d565b600181019050610586565b5050565b601f8211156105e9576105ba8161047f565b6105c384610494565b810160208510156105d2578190505b6105e66105de85610494565b830182610585565b50505b505050565b600082821c905092915050565b600061060c600019846008026105ee565b1980831691505092915050565b600061062583836105fb565b9150826002028217905092915050565b61063e82610414565b67ffffffffffffffff81111561065757610656610248565b5b610661825461044e565b61066c8282856105a8565b600060209050601f83116001811461069f576000841561068d578287015190505b6106978582610619565b8655506106ff565b601f1984166106ad8661047f565b60005b828110156106d5578489015182556001820191506020850194506020810190506106b0565b868310156106f257848901516106ee601f8916826105fb565b8355505b6001600288020188555050505b505050505050565b7f4e487b7100000000000000000000000000000000000000000000000000000000600052602160045260246000fd5b6116ab806107456000396000f3fe6080604052600436106100f35760003560e01c80638801bf911161008a578063a9709c0c11610059578063a9709c0c146102b4578063b9e2bea0146102be578063c3403ddf146102e9578063f2fde38b14610314576100f3565b80638801bf91146102175780638da5cb5b14610254578063919c4b0a1461027f5780639e075449146102aa576100f3565b80633ccfd60b116100c65780633ccfd60b146101a257806351045fab146101ac578063715018a6146101d55780637284e416146101ec576100f3565b80630f7a4590146100f857806311dba1811461012357806312897d07146101605780631ec6b60a1461018b575b600080fd5b34801561010457600080fd5b5061010d61033d565b60405161011a9190610fdf565b60405180910390f35b34801561012f57600080fd5b5061014a6004803603810190610145919061105d565b610350565b60405161015791906110a3565b60405180910390f35b34801561016c57600080fd5b50610175610368565b60405161018291906110a3565b60405180910390f35b34801561019757600080fd5b506101a061036e565b005b6101aa6103a3565b005b3480156101b857600080fd5b506101d360048036038101906101ce91906110ea565b61084f565b005b3480156101e157600080fd5b506101ea6108e5565b005b3480156101f857600080fd5b506102016108f9565b60405161020e91906111a7565b60405180910390f35b34801561022357600080fd5b5061023e6004803603810190610239919061105d565b610987565b60405161024b91906110a3565b60405180910390f35b34801561026057600080fd5b5061026961099f565b60405161027691906111d8565b60405180910390f35b34801561028b57600080fd5b506102946109c8565b6040516102a191906110a3565b60405180910390f35b6102b26109ce565b005b6102bc610a7f565b005b3480156102ca57600080fd5b506102d3610b30565b6040516102e091906112ff565b60405180910390f35b3480156102f557600080fd5b506102fe610bf5565b60405161030b9190610fdf565b60405180910390f35b34801561032057600080fd5b5061033b6004803603810190610336919061105d565b610cc8565b005b600260019054906101000a900460ff1681565b60066020528060005260406000206000915090505481565b60045481565b610376610d4e565b6001600260006101000a81548160ff0219169083600481111561039c5761039b611202565b5b0217905550565b600260048111156103b7576103b6611202565b5b600260009054906101000a900460ff1660048111156103d9576103d8611202565b5b036106b3576000600560003373ffffffffffffffffffffffffffffffffffffffff1673ffffffffffffffffffffffffffffffffffffffff1681526020019081526020016000205490506000600660003373ffffffffffffffffffffffffffffffffffffffff1673ffffffffffffffffffffffffffffffffffffffff16815260200190815260200160002054905060008211806104755750600081115b6104b4576040517f08c379a00000000000000000000000000000000000000000000000000000000081526004016104ab90611366565b60405180910390fd5b6000600560003373ffffffffffffffffffffffffffffffffffffffff1673ffffffffffffffffffffffffffffffffffffffff168152602001908152602001600020819055506000600660003373ffffffffffffffffffffffffffffffffffffffff1673ffffffffffffffffffffffffffffffffffffffff1681526020019081526020016000208190555060008211156105f55760003373ffffffffffffffffffffffffffffffffffffffff168360405161056d906113b7565b60006040518083038185875af1925050503d80600081146105aa576040519150601f19603f3d011682016040523d82523d6000602084013e6105af565b606091505b50509050806105f3576040517f08c379a00000000000000000000000000000000000000000000000000000000081526004016105ea90611418565b60405180910390fd5b505b60008111156106ac5760003373ffffffffffffffffffffffffffffffffffffffff1682604051610624906113b7565b60006040518083038185875af1925050503d8060008114610661576040519150601f19603f3d011682016040523d82523d6000602084013e610666565b606091505b50509050806106aa576040517f08c379a00000000000000000000000000000000000000000000000000000000081526004016106a190611484565b60405180910390fd5b505b505061084d565b6004808111156106c6576106c5611202565b5b600260009054906101000a900460ff1660048111156106e8576106e7611202565b5b0361084c5760006004546003546106ff91906114d3565b610707610dd5565b6107119190611507565b90506000600560003373ffffffffffffffffffffffffffffffffffffffff1673ffffffffffffffffffffffffffffffffffffffff168152602001908152602001600020819055506000600660003373ffffffffffffffffffffffffffffffffffffffff1673ffffffffffffffffffffffffffffffffffffffff1681526020019081526020016000208190555060003373ffffffffffffffffffffffffffffffffffffffff16826040516107c3906113b7565b60006040518083038185875af1925050503d8060008114610800576040519150601f19603f3d011682016040523d82523d6000602084013e610805565b606091505b5050905080610849576040517f08c379a000000000000000000000000000000000000000000000000000000000815260040161084090611595565b60405180910390fd5b50505b5b565b610857610d4e565b6004600260006101000a81548160ff0219169083600481111561087d5761087c611202565b5b021790555080600260016101000a81548160ff0219169083151502179055507f0d91d7e2574d629f04252d615142935e3cc2a9d06eeda1418bac7a71d3b2b4dd600260019054906101000a900460ff166040516108da9190610fdf565b60405180910390a150565b6108ed610d4e565b6108f76000610e9f565b565b60018054610906906115e4565b80601f0160208091040260200160405190810160405280929190818152602001828054610932906115e4565b801561097f5780601f106109545761010080835404028352916020019161097f565b820191906000526020600020905b81548152906001019060200180831161096257829003601f168201915b505050505081565b60056020528060005260406000206000915090505481565b60008060009054906101000a900473ffffffffffffffffffffffffffffffffffffffff16905090565b60035481565b600160048111156109e2576109e1611202565b5b600260009054906101000a900460ff166004811115610a0457610a03611202565b5b14610a0e57600080fd5b34600560003373ffffffffffffffffffffffffffffffffffffffff1673ffffffffffffffffffffffffffffffffffffffff1681526020019081526020016000206000828254610a5d91906114d3565b925050819055503460036000828254610a7691906114d3565b92505081905550565b60016004811115610a9357610a92611202565b5b600260009054906101000a900460ff166004811115610ab557610ab4611202565b5b14610abf57600080fd5b34600660003373ffffffffffffffffffffffffffffffffffffffff1673ffffffffffffffffffffffffffffffffffffffff1681526020019081526020016000206000828254610b0e91906114d3565b925050819055503460046000828254610b2791906114d3565b92505081905550565b610b38610f6b565b610b40610f6b565b30816000019073ffffffffffffffffffffffffffffffffffffffff16908173ffffffffffffffffffffffffffffffffffffffff1681525050600260009054906101000a900460ff1681602001906004811115610b9f57610b9e611202565b5b90816004811115610bb357610bb2611202565b5b81525050600354816040018181525050600454816060018181525050600260019054906101000a900460ff168160800190151590811515815250508091505090565b6000610bff610d4e565b60035460045410610c695760028060006101000a81548160ff02191690836004811115610c2f57610c2e611202565b5b02179055507fd9b98126754488697fc3a0bc3e9712c57e60e8e41bc7b8c24fee5fa948d3e9dd60405160405180910390a160009050610cc5565b6003600260006101000a81548160ff02191690836004811115610c8f57610c8e611202565b5b02179055507fbf9067c9d0ba76fdfcb416bccec45fe88cda5437e5220b5a31d49b89d909567b60405160405180910390a1600190505b90565b610cd0610d4e565b600073ffffffffffffffffffffffffffffffffffffffff168173ffffffffffffffffffffffffffffffffffffffff1603610d425760006040517f1e4fbdf7000000000000000000000000000000000000000000000000000000008152600401610d3991906111d8565b60405180910390fd5b610d4b81610e9f565b50565b610d56610f63565b73ffffffffffffffffffffffffffffffffffffffff16610d7461099f565b73ffffffffffffffffffffffffffffffffffffffff1614610dd357610d97610f63565b6040517f118cdaa7000000000000000000000000000000000000000000000000000000008152600401610dca91906111d8565b60405180910390fd5b565b6000600260019054906101000a900460ff1615610e46576000600560003373ffffffffffffffffffffffffffffffffffffffff1673ffffffffffffffffffffffffffffffffffffffff16815260200190815260200160002054905060035481610e3e9190611644565b915050610e9c565b6000600660003373ffffffffffffffffffffffffffffffffffffffff1673ffffffffffffffffffffffffffffffffffffffff16815260200190815260200160002054905060045481610e989190611644565b9150505b90565b60008060009054906101000a900473ffffffffffffffffffffffffffffffffffffffff169050816000806101000a81548173ffffffffffffffffffffffffffffffffffffffff021916908373ffffffffffffffffffffffffffffffffffffffff1602179055508173ffffffffffffffffffffffffffffffffffffffff168173ffffffffffffffffffffffffffffffffffffffff167f8be0079c531659141344cd1fd0a4f28419497f9722a3daafe3b4186f6b6457e060405160405180910390a35050565b600033905090565b6040518060a00160405280600073ffffffffffffffffffffffffffffffffffffffff16815260200160006004811115610fa757610fa6611202565b5b815260200160008152602001600081526020016000151581525090565b60008115159050919050565b610fd981610fc4565b82525050565b6000602082019050610ff46000830184610fd0565b92915050565b600080fd5b600073ffffffffffffffffffffffffffffffffffffffff82169050919050565b600061102a82610fff565b9050919050565b61103a8161101f565b811461104557600080fd5b50565b60008135905061105781611031565b92915050565b60006020828403121561107357611072610ffa565b5b600061108184828501611048565b91505092915050565b6000819050919050565b61109d8161108a565b82525050565b60006020820190506110b86000830184611094565b92915050565b6110c781610fc4565b81146110d257600080fd5b50565b6000813590506110e4816110be565b92915050565b600060208284031215611100576110ff610ffa565b5b600061110e848285016110d5565b91505092915050565b600081519050919050565b600082825260208201905092915050565b60005b83811015611151578082015181840152602081019050611136565b60008484015250505050565b6000601f19601f8301169050919050565b600061117982611117565b6111838185611122565b9350611193818560208601611133565b61119c8161115d565b840191505092915050565b600060208201905081810360008301526111c1818461116e565b905092915050565b6111d28161101f565b82525050565b60006020820190506111ed60008301846111c9565b92915050565b6111fc8161101f565b82525050565b7f4e487b7100000000000000000000000000000000000000000000000000000000600052602160045260246000fd5b6005811061124257611241611202565b5b50565b600081905061125382611231565b919050565b600061126382611245565b9050919050565b61127381611258565b82525050565b6112828161108a565b82525050565b61129181610fc4565b82525050565b60a0820160008201516112ad60008501826111f3565b5060208201516112c0602085018261126a565b5060408201516112d36040850182611279565b5060608201516112e66060850182611279565b5060808201516112f96080850182611288565b50505050565b600060a0820190506113146000830184611297565b92915050565b7f4e6f2066756e647320746f207769746864726177000000000000000000000000600082015250565b6000611350601483611122565b915061135b8261131a565b602082019050919050565b6000602082019050818103600083015261137f81611343565b9050919050565b600081905092915050565b50565b60006113a1600083611386565b91506113ac82611391565b600082019050919050565b60006113c282611394565b9150819050919050565b7f5769746864726177616c206f662027596573272066756e6473206661696c6564600082015250565b6000611402602083611122565b915061140d826113cc565b602082019050919050565b60006020820190508181036000830152611431816113f5565b9050919050565b7f5769746864726177616c206f6620274e6f272066756e6473206661696c656400600082015250565b600061146e601f83611122565b915061147982611438565b602082019050919050565b6000602082019050818103600083015261149d81611461565b9050919050565b7f4e487b7100000000000000000000000000000000000000000000000000000000600052601160045260246000fd5b60006114de8261108a565b91506114e98361108a565b9250828201905080821115611501576115006114a4565b5b92915050565b60006115128261108a565b915061151d8361108a565b925082820261152b8161108a565b91508282048414831517611542576115416114a4565b5b5092915050565b7f436c61696d696e672072657761726473206661696c6564000000000000000000600082015250565b600061157f601783611122565b915061158a82611549565b602082019050919050565b600060208201905081810360008301526115ae81611572565b9050919050565b7f4e487b7100000000000000000000000000000000000000000000000000000000600052602260045260246000fd5b600060028204905060018216806115fc57607f821691505b60208210810361160f5761160e6115b5565b5b50919050565b7f4e487b7100000000000000000000000000000000000000000000000000000000600052601260045260246000fd5b600061164f8261108a565b915061165a8361108a565b92508261166a57611669611615565b5b82820490509291505056fea26469706673582212200a8ae843c64dcddfa7b681c2d5968adadefd13cab3731371d19543d987f056a464736f6c634300081a0033",
  "linkReferences": {},
  "deployedLinkReferences": {}
}