{
  "_format": "hh-sol-artifact-1",
  "contractName": "FutarchyGoal",
  "sourceName": "contracts/FutarchyGoal.sol",
  "abi": [
    {
      "inputs": [
        {
          "internalType": "string",
          "name": "_cid",
          "type": "string"
        },
        {
          "internalType": "address",
          "name": "_owner",
          "type": "address"
        },
        {
          "internalType": "uint256",
          "name": "_goalMaturity",
          "type": "uint256"
        },
        {
          "internalType": "uint256",
          "name": "_goalValue",
          "type": "uint256"
        },
        {
          "internalType": "uint256",
          "name": "_votingDeadline",
          "type": "uint256"
        },
        {
          "internalType": "bool",
          "name": "_demo",
          "type": "bool"
        }
      ],
      "stateMutability": "nonpayable",
      "type": "constructor"
    },
    {
      "inputs": [
        {
          "internalType": "address",
          "name": "owner",
          "type": "address"
        }
      ],
      "name": "OwnableInvalidOwner",
      "type": "error"
    },
    {
      "inputs": [
        {
          "internalType": "address",
          "name": "account",
          "type": "address"
        }
      ],
      "name": "OwnableUnauthorizedAccount",
      "type": "error"
    },
    {
      "anonymous": false,
      "inputs": [
        {
          "indexed": true,
          "internalType": "address",
          "name": "previousOwner",
          "type": "address"
        },
        {
          "indexed": true,
          "internalType": "address",
          "name": "newOwner",
          "type": "address"
        }
      ],
      "name": "OwnershipTransferred",
      "type": "event"
    },
    {
      "anonymous": false,
      "inputs": [
        {
          "indexed": false,
          "internalType": "uint256",
          "name": "_proposalId",
          "type": "uint256"
        },
        {
          "indexed": false,
          "internalType": "address",
          "name": "_proposalAddr",
          "type": "address"
        }
      ],
      "name": "ProposalAdded",
      "type": "event"
    },
    {
      "inputs": [
        {
          "internalType": "string",
          "name": "_description",
          "type": "string"
        }
      ],
      "name": "createProposal",
      "outputs": [],
      "stateMutability": "nonpayable",
      "type": "function"
    },
    {
      "inputs": [],
      "name": "currentProposal",
      "outputs": [
        {
          "internalType": "uint256",
          "name": "",
          "type": "uint256"
        }
      ],
      "stateMutability": "view",
      "type": "function"
    },
    {
      "inputs": [],
      "name": "demo",
      "outputs": [
        {
          "internalType": "bool",
          "name": "",
          "type": "bool"
        }
      ],
      "stateMutability": "view",
      "type": "function"
    },
    {
      "inputs": [],
      "name": "endProposalVoting",
      "outputs": [],
      "stateMutability": "nonpayable",
      "type": "function"
    },
    {
      "inputs": [],
      "name": "getGoal",
      "outputs": [
        {
          "components": [
            {
              "internalType": "address",
              "name": "addr",
              "type": "address"
            },
            {
              "internalType": "string",
              "name": "remoteCid",
              "type": "string"
            },
            {
              "internalType": "address[]",
              "name": "proposals",
              "type": "address[]"
            },
            {
              "internalType": "uint256",
              "name": "goalMaturity",
              "type": "uint256"
            },
            {
              "internalType": "uint256",
              "name": "goalValue",
              "type": "uint256"
            },
            {
              "internalType": "uint256",
              "name": "votingDeadline",
              "type": "uint256"
            },
            {
              "internalType": "address",
              "name": "currentProposal",
              "type": "address"
            },
            {
              "internalType": "uint256",
              "name": "startTime",
              "type": "uint256"
            }
          ],
          "internalType": "struct FutarchyGoal.Goal",
          "name": "",
          "type": "tuple"
        }
      ],
      "stateMutability": "view",
      "type": "function"
    },
    {
      "inputs": [
        {
          "internalType": "uint256",
          "name": "_proposalId",
          "type": "uint256"
        }
      ],
      "name": "getProposal",
      "outputs": [
        {
          "internalType": "address",
          "name": "",
          "type": "address"
        }
      ],
      "stateMutability": "view",
      "type": "function"
    },
    {
      "inputs": [],
      "name": "goalAchieved",
      "outputs": [],
      "stateMutability": "nonpayable",
      "type": "function"
    },
    {
      "inputs": [],
      "name": "goalMaturity",
      "outputs": [
        {
          "internalType": "uint256",
          "name": "",
          "type": "uint256"
        }
      ],
      "stateMutability": "view",
      "type": "function"
    },
    {
      "inputs": [],
      "name": "goalValue",
      "outputs": [
        {
          "internalType": "uint256",
          "name": "",
          "type": "uint256"
        }
      ],
      "stateMutability": "view",
      "type": "function"
    },
    {
      "inputs": [],
      "name": "nbProposals",
      "outputs": [
        {
          "internalType": "uint256",
          "name": "",
          "type": "uint256"
        }
      ],
      "stateMutability": "view",
      "type": "function"
    },
    {
      "inputs": [],
      "name": "oracle",
      "outputs": [
        {
          "internalType": "address",
          "name": "",
          "type": "address"
        }
      ],
      "stateMutability": "view",
      "type": "function"
    },
    {
      "inputs": [],
      "name": "owner",
      "outputs": [
        {
          "internalType": "address",
          "name": "",
          "type": "address"
        }
      ],
      "stateMutability": "view",
      "type": "function"
    },
    {
      "inputs": [
        {
          "internalType": "uint256",
          "name": "",
          "type": "uint256"
        }
      ],
      "name": "proposals",
      "outputs": [
        {
          "internalType": "address",
          "name": "",
          "type": "address"
        }
      ],
      "stateMutability": "view",
      "type": "function"
    },
    {
      "inputs": [],
      "name": "remoteCid",
      "outputs": [
        {
          "internalType": "string",
          "name": "",
          "type": "string"
        }
      ],
      "stateMutability": "view",
      "type": "function"
    },
    {
      "inputs": [],
      "name": "renounceOwnership",
      "outputs": [],
      "stateMutability": "nonpayable",
      "type": "function"
    },
    {
      "inputs": [],
      "name": "startTime",
      "outputs": [
        {
          "internalType": "uint256",
          "name": "",
          "type": "uint256"
        }
      ],
      "stateMutability": "view",
      "type": "function"
    },
    {
      "inputs": [
        {
          "internalType": "address",
          "name": "newOwner",
          "type": "address"
        }
      ],
      "name": "transferOwnership",
      "outputs": [],
      "stateMutability": "nonpayable",
      "type": "function"
    },
    {
      "inputs": [],
      "name": "votingDeadline",
      "outputs": [
        {
          "internalType": "uint256",
          "name": "",
          "type": "uint256"
        }
      ],
      "stateMutability": "view",
      "type": "function"
    }
  ],
  "bytecode": "0x608060405234801561001057600080fd5b50604051613fe0380380613fe08339818101604052810190610032919061047a565b84600073ffffffffffffffffffffffffffffffffffffffff168173ffffffffffffffffffffffffffffffffffffffff16036100a55760006040517f1e4fbdf700000000000000000000000000000000000000000000000000000000815260040161009c9190610532565b60405180910390fd5b6100b48161016860201b60201c565b5085600490816100c49190610764565b506040516100d19061022c565b604051809103906000f0801580156100ed573d6000803e3d6000fd5b50600260006101000a81548173ffffffffffffffffffffffffffffffffffffffff021916908373ffffffffffffffffffffffffffffffffffffffff16021790555083600681905550826007819055508160088190555080600960006101000a81548160ff021916908315150217905550505050505050610836565b60008060009054906101000a900473ffffffffffffffffffffffffffffffffffffffff169050816000806101000a81548173ffffffffffffffffffffffffffffffffffffffff021916908373ffffffffffffffffffffffffffffffffffffffff1602179055508173ffffffffffffffffffffffffffffffffffffffff168173ffffffffffffffffffffffffffffffffffffffff167f8be0079c531659141344cd1fd0a4f28419497f9722a3daafe3b4186f6b6457e060405160405180910390a35050565b61021480613dcc83390190565b6000604051905090565b600080fd5b600080fd5b600080fd5b600080fd5b6000601f19601f8301169050919050565b7f4e487b7100000000000000000000000000000000000000000000000000000000600052604160045260246000fd5b6102a082610257565b810181811067ffffffffffffffff821117156102bf576102be610268565b5b80604052505050565b60006102d2610239565b90506102de8282610297565b919050565b600067ffffffffffffffff8211156102fe576102fd610268565b5b61030782610257565b9050602081019050919050565b60005b83811015610332578082015181840152602081019050610317565b60008484015250505050565b600061035161034c846102e3565b6102c8565b90508281526020810184848401111561036d5761036c610252565b5b610378848285610314565b509392505050565b600082601f8301126103955761039461024d565b5b81516103a584826020860161033e565b91505092915050565b600073ffffffffffffffffffffffffffffffffffffffff82169050919050565b60006103d9826103ae565b9050919050565b6103e9816103ce565b81146103f457600080fd5b50565b600081519050610406816103e0565b92915050565b6000819050919050565b61041f8161040c565b811461042a57600080fd5b50565b60008151905061043c81610416565b92915050565b60008115159050919050565b61045781610442565b811461046257600080fd5b50565b6000815190506104748161044e565b92915050565b60008060008060008060c0878903121561049757610496610243565b5b600087015167ffffffffffffffff8111156104b5576104b4610248565b5b6104c189828a01610380565b96505060206104d289828a016103f7565b95505060406104e389828a0161042d565b94505060606104f489828a0161042d565b935050608061050589828a0161042d565b92505060a061051689828a01610465565b9150509295509295509295565b61052c816103ce565b82525050565b60006020820190506105476000830184610523565b92915050565b600081519050919050565b7f4e487b7100000000000000000000000000000000000000000000000000000000600052602260045260246000fd5b6000600282049050600182168061059f57607f821691505b6020821081036105b2576105b1610558565b5b50919050565b60008190508160005260206000209050919050565b60006020601f8301049050919050565b600082821b905092915050565b60006008830261061a7fffffffffffffffffffffffffffffffffffffffffffffffffffffffffffffffff826105dd565b61062486836105dd565b95508019841693508086168417925050509392505050565b6000819050919050565b600061066161065c6106578461040c565b61063c565b61040c565b9050919050565b6000819050919050565b61067b83610646565b61068f61068782610668565b8484546105ea565b825550505050565b600090565b6106a4610697565b6106af818484610672565b505050565b5b818110156106d3576106c860008261069c565b6001810190506106b5565b5050565b601f821115610718576106e9816105b8565b6106f2846105cd565b81016020851015610701578190505b61071561070d856105cd565b8301826106b4565b50505b505050565b600082821c905092915050565b600061073b6000198460080261071d565b1980831691505092915050565b6000610754838361072a565b9150826002028217905092915050565b61076d8261054d565b67ffffffffffffffff81111561078657610785610268565b5b6107908254610587565b61079b8282856106d7565b600060209050601f8311600181146107ce57600084156107bc578287015190505b6107c68582610748565b86555061082e565b601f1984166107dc866105b8565b60005b82811015610804578489015182556001820191506020850194506020810190506107df565b86831015610821578489015161081d601f89168261072a565b8355505b6001600288020188555050505b505050505050565b613587806108456000396000f3fe608060405234801561001057600080fd5b50600436106101165760003560e01c8063715018a6116100a2578063b97a7d2411610071578063b97a7d2414610289578063c7f758a8146102a7578063daf8bd53146102d7578063f2dee81e146102f5578063f2fde38b146102ff57610116565b8063715018a61461022557806378e979251461022f5780637dc0d1d01461024d5780638da5cb5b1461026b57610116565b8063224a9dfe116100e9578063224a9dfe146101915780632b49d425146101af57806349c2a1a6146101cd578063583a135d146101e95780635c4f4fd41461020757610116565b8063013cf08b1461011b57806301725a0b1461014b578063036ee850146101695780630f7a459014610187575b600080fd5b61013560048036038101906101309190610eb3565b61031b565b6040516101429190610f21565b60405180910390f35b61015361035a565b6040516101609190610f57565b60405180910390f35b61017161036d565b60405161017e9190610f81565b60405180910390f35b61018f610373565b005b610199610525565b6040516101a69190610f81565b60405180910390f35b6101b761052b565b6040516101c49190610f81565b60405180910390f35b6101e760048036038101906101e29190611001565b610531565b005b6101f16106a3565b6040516101fe9190610f81565b60405180910390f35b61020f6106a9565b60405161021c9190610f81565b60405180910390f35b61022d6106b6565b005b6102376106ca565b6040516102449190610f81565b60405180910390f35b6102556106d0565b6040516102629190610f21565b60405180910390f35b6102736106f6565b6040516102809190610f21565b60405180910390f35b61029161071f565b60405161029e9190611262565b60405180910390f35b6102c160048036038101906102bc9190610eb3565b610947565b6040516102ce9190610f21565b60405180910390f35b6102df61098f565b6040516102ec91906112ce565b60405180910390f35b6102fd610a1d565b005b6103196004803603810190610314919061131c565b610c1c565b005b6001818154811061032b57600080fd5b906000526020600020016000915054906101000a900473ffffffffffffffffffffffffffffffffffffffff1681565b600960009054906101000a900460ff1681565b60085481565b600654806005546103849190611378565b42118061039d5750600960009054906101000a900460ff165b6103dc576040517f08c379a00000000000000000000000000000000000000000000000000000000081526004016103d3906113f8565b60405180910390fd5b6000600754600260009054906101000a900473ffffffffffffffffffffffffffffffffffffffff1673ffffffffffffffffffffffffffffffffffffffff1663de2927896040518163ffffffff1660e01b8152600401602060405180830381865afa15801561044e573d6000803e3d6000fd5b505050506040513d601f19601f82011682018060405250810190610472919061142d565b1015905060016003548154811061048c5761048b61145a565b5b9060005260206000200160009054906101000a900473ffffffffffffffffffffffffffffffffffffffff1673ffffffffffffffffffffffffffffffffffffffff166351045fab826040518263ffffffff1660e01b81526004016104ef9190610f57565b600060405180830381600087803b15801561050957600080fd5b505af115801561051d573d6000803e3d6000fd5b505050505050565b60065481565b60035481565b610539610ca2565b600030838360405161054a90610df5565b610556939291906114c5565b604051809103906000f080158015610572573d6000803e3d6000fd5b5090506001819080600181540180825580915050600190039060005260206000200160009091909190916101000a81548173ffffffffffffffffffffffffffffffffffffffff021916908373ffffffffffffffffffffffffffffffffffffffff1602179055506000600180805490506105eb91906114f7565b9050600081036106645780600381905550426005819055508173ffffffffffffffffffffffffffffffffffffffff16631ec6b60a6040518163ffffffff1660e01b8152600401600060405180830381600087803b15801561064b57600080fd5b505af115801561065f573d6000803e3d6000fd5b505050505b7f930cbf894ce7980f8d7e648e4f579028f57f4fb8950bfc42d1a411374c5cef5a818360405161069592919061152b565b60405180910390a150505050565b60075481565b6000600180549050905090565b6106be610ca2565b6106c86000610d29565b565b60055481565b600260009054906101000a900473ffffffffffffffffffffffffffffffffffffffff1681565b60008060009054906101000a900473ffffffffffffffffffffffffffffffffffffffff16905090565b610727610e02565b61072f610e02565b30816000019073ffffffffffffffffffffffffffffffffffffffff16908173ffffffffffffffffffffffffffffffffffffffff16815250506004805461077490611583565b80601f01602080910402602001604051908101604052809291908181526020018280546107a090611583565b80156107ed5780601f106107c2576101008083540402835291602001916107ed565b820191906000526020600020905b8154815290600101906020018083116107d057829003601f168201915b50505050508160200181905250600180548060200260200160405190810160405280929190818152602001828054801561087c57602002820191906000526020600020905b8160009054906101000a900473ffffffffffffffffffffffffffffffffffffffff1673ffffffffffffffffffffffffffffffffffffffff1681526020019060010190808311610832575b505050505081604001819052506006548160600181815250506007548160800181815250506008548160a001818152505060006001805490501115610934576001600354815481106108d1576108d061145a565b5b9060005260206000200160009054906101000a900473ffffffffffffffffffffffffffffffffffffffff168160c0019073ffffffffffffffffffffffffffffffffffffffff16908173ffffffffffffffffffffffffffffffffffffffff16815250505b6005548160e00181815250508091505090565b60006001828154811061095d5761095c61145a565b5b9060005260206000200160009054906101000a900473ffffffffffffffffffffffffffffffffffffffff169050919050565b6004805461099c90611583565b80601f01602080910402602001604051908101604052809291908181526020018280546109c890611583565b8015610a155780601f106109ea57610100808354040283529160200191610a15565b820191906000526020600020905b8154815290600101906020018083116109f857829003601f168201915b505050505081565b610a25610ca2565b60085480600554610a369190611378565b421180610a4f5750600960009054906101000a900460ff165b610a8e576040517f08c379a0000000000000000000000000000000000000000000000000000000008152600401610a85906113f8565b60405180910390fd5b6000600160035481548110610aa657610aa561145a565b5b9060005260206000200160009054906101000a900473ffffffffffffffffffffffffffffffffffffffff1673ffffffffffffffffffffffffffffffffffffffff1663c3403ddf6040518163ffffffff1660e01b81526004016020604051808303816000875af1158015610b1d573d6000803e3d6000fd5b505050506040513d601f19601f82011682018060405250810190610b4191906115e0565b905080610c18576003546001805490501115610c175760036000815480929190610b6a9061160d565b919050555042600581905550600160035481548110610b8c57610b8b61145a565b5b9060005260206000200160009054906101000a900473ffffffffffffffffffffffffffffffffffffffff1673ffffffffffffffffffffffffffffffffffffffff16631ec6b60a6040518163ffffffff1660e01b8152600401600060405180830381600087803b158015610bfe57600080fd5b505af1158015610c12573d6000803e3d6000fd5b505050505b5b5050565b610c24610ca2565b600073ffffffffffffffffffffffffffffffffffffffff168173ffffffffffffffffffffffffffffffffffffffff1603610c965760006040517f1e4fbdf7000000000000000000000000000000000000000000000000000000008152600401610c8d9190610f21565b60405180910390fd5b610c9f81610d29565b50565b610caa610ded565b73ffffffffffffffffffffffffffffffffffffffff16610cc86106f6565b73ffffffffffffffffffffffffffffffffffffffff1614610d2757610ceb610ded565b6040517f118cdaa7000000000000000000000000000000000000000000000000000000008152600401610d1e9190610f21565b60405180910390fd5b565b60008060009054906101000a900473ffffffffffffffffffffffffffffffffffffffff169050816000806101000a81548173ffffffffffffffffffffffffffffffffffffffff021916908373ffffffffffffffffffffffffffffffffffffffff1602179055508173ffffffffffffffffffffffffffffffffffffffff168173ffffffffffffffffffffffffffffffffffffffff167f8be0079c531659141344cd1fd0a4f28419497f9722a3daafe3b4186f6b6457e060405160405180910390a35050565b600033905090565b611efc8061165683390190565b604051806101000160405280600073ffffffffffffffffffffffffffffffffffffffff1681526020016060815260200160608152602001600081526020016000815260200160008152602001600073ffffffffffffffffffffffffffffffffffffffff168152602001600081525090565b600080fd5b600080fd5b6000819050919050565b610e9081610e7d565b8114610e9b57600080fd5b50565b600081359050610ead81610e87565b92915050565b600060208284031215610ec957610ec8610e73565b5b6000610ed784828501610e9e565b91505092915050565b600073ffffffffffffffffffffffffffffffffffffffff82169050919050565b6000610f0b82610ee0565b9050919050565b610f1b81610f00565b82525050565b6000602082019050610f366000830184610f12565b92915050565b60008115159050919050565b610f5181610f3c565b82525050565b6000602082019050610f6c6000830184610f48565b92915050565b610f7b81610e7d565b82525050565b6000602082019050610f966000830184610f72565b92915050565b600080fd5b600080fd5b600080fd5b60008083601f840112610fc157610fc0610f9c565b5b8235905067ffffffffffffffff811115610fde57610fdd610fa1565b5b602083019150836001820283011115610ffa57610ff9610fa6565b5b9250929050565b6000806020838503121561101857611017610e73565b5b600083013567ffffffffffffffff81111561103657611035610e78565b5b61104285828601610fab565b92509250509250929050565b61105781610f00565b82525050565b600081519050919050565b600082825260208201905092915050565b60005b8381101561109757808201518184015260208101905061107c565b60008484015250505050565b6000601f19601f8301169050919050565b60006110bf8261105d565b6110c98185611068565b93506110d9818560208601611079565b6110e2816110a3565b840191505092915050565b600081519050919050565b600082825260208201905092915050565b6000819050602082019050919050565b6000611125838361104e565b60208301905092915050565b6000602082019050919050565b6000611149826110ed565b61115381856110f8565b935061115e83611109565b8060005b8381101561118f5781516111768882611119565b975061118183611131565b925050600181019050611162565b5085935050505092915050565b6111a581610e7d565b82525050565b6000610100830160008301516111c4600086018261104e565b50602083015184820360208601526111dc82826110b4565b915050604083015184820360408601526111f6828261113e565b915050606083015161120b606086018261119c565b50608083015161121e608086018261119c565b5060a083015161123160a086018261119c565b5060c083015161124460c086018261104e565b5060e083015161125760e086018261119c565b508091505092915050565b6000602082019050818103600083015261127c81846111ab565b905092915050565b600082825260208201905092915050565b60006112a08261105d565b6112aa8185611284565b93506112ba818560208601611079565b6112c3816110a3565b840191505092915050565b600060208201905081810360008301526112e88184611295565b905092915050565b6112f981610f00565b811461130457600080fd5b50565b600081359050611316816112f0565b92915050565b60006020828403121561133257611331610e73565b5b600061134084828501611307565b91505092915050565b7f4e487b7100000000000000000000000000000000000000000000000000000000600052601160045260246000fd5b600061138382610e7d565b915061138e83610e7d565b92508282019050808211156113a6576113a5611349565b5b92915050565b7f54696d65206973206e6f74206f76657200000000000000000000000000000000600082015250565b60006113e2601083611284565b91506113ed826113ac565b602082019050919050565b60006020820190508181036000830152611411816113d5565b9050919050565b60008151905061142781610e87565b92915050565b60006020828403121561144357611442610e73565b5b600061145184828501611418565b91505092915050565b7f4e487b7100000000000000000000000000000000000000000000000000000000600052603260045260246000fd5b82818337600083830152505050565b60006114a48385611284565b93506114b1838584611489565b6114ba836110a3565b840190509392505050565b60006040820190506114da6000830186610f12565b81810360208301526114ed818486611498565b9050949350505050565b600061150282610e7d565b915061150d83610e7d565b925082820390508181111561152557611524611349565b5b92915050565b60006040820190506115406000830185610f72565b61154d6020830184610f12565b9392505050565b7f4e487b7100000000000000000000000000000000000000000000000000000000600052602260045260246000fd5b6000600282049050600182168061159b57607f821691505b6020821081036115ae576115ad611554565b5b50919050565b6115bd81610f3c565b81146115c857600080fd5b50565b6000815190506115da816115b4565b92915050565b6000602082840312156115f6576115f5610e73565b5b6000611604848285016115cb565b91505092915050565b600061161882610e7d565b91507fffffffffffffffffffffffffffffffffffffffffffffffffffffffffffffffff820361164a57611649611349565b5b60018201905091905056fe608060405234801561001057600080fd5b50604051611efc380380611efc8339818101604052810190610032919061038e565b81600073ffffffffffffffffffffffffffffffffffffffff168173ffffffffffffffffffffffffffffffffffffffff16036100a55760006040517f1e4fbdf700000000000000000000000000000000000000000000000000000000815260040161009c91906103f9565b60405180910390fd5b6100b4816100f760201b60201c565b5080600190816100c49190610635565b506000600260006101000a81548160ff021916908360048111156100eb576100ea610707565b5b02179055505050610736565b60008060009054906101000a900473ffffffffffffffffffffffffffffffffffffffff169050816000806101000a81548173ffffffffffffffffffffffffffffffffffffffff021916908373ffffffffffffffffffffffffffffffffffffffff1602179055508173ffffffffffffffffffffffffffffffffffffffff168173ffffffffffffffffffffffffffffffffffffffff167f8be0079c531659141344cd1fd0a4f28419497f9722a3daafe3b4186f6b6457e060405160405180910390a35050565b6000604051905090565b600080fd5b600080fd5b600073ffffffffffffffffffffffffffffffffffffffff82169050919050565b60006101fa826101cf565b9050919050565b61020a816101ef565b811461021557600080fd5b50565b60008151905061022781610201565b92915050565b600080fd5b600080fd5b6000601f19601f8301169050919050565b7f4e487b7100000000000000000000000000000000000000000000000000000000600052604160045260246000fd5b61028082610237565b810181811067ffffffffffffffff8211171561029f5761029e610248565b5b80604052505050565b60006102b26101bb565b90506102be8282610277565b919050565b600067ffffffffffffffff8211156102de576102dd610248565b5b6102e782610237565b9050602081019050919050565b60005b838110156103125780820151818401526020810190506102f7565b60008484015250505050565b600061033161032c846102c3565b6102a8565b90508281526020810184848401111561034d5761034c610232565b5b6103588482856102f4565b509392505050565b600082601f8301126103755761037461022d565b5b815161038584826020860161031e565b91505092915050565b600080604083850312156103a5576103a46101c5565b5b60006103b385828601610218565b925050602083015167ffffffffffffffff8111156103d4576103d36101ca565b5b6103e085828601610360565b9150509250929050565b6103f3816101ef565b82525050565b600060208201905061040e60008301846103ea565b92915050565b600081519050919050565b7f4e487b7100000000000000000000000000000000000000000000000000000000600052602260045260246000fd5b6000600282049050600182168061046657607f821691505b6020821081036104795761047861041f565b5b50919050565b60008190508160005260206000209050919050565b60006020601f8301049050919050565b600082821b905092915050565b6000600883026104e17fffffffffffffffffffffffffffffffffffffffffffffffffffffffffffffffff826104a4565b6104eb86836104a4565b95508019841693508086168417925050509392505050565b6000819050919050565b6000819050919050565b600061053261052d61052884610503565b61050d565b610503565b9050919050565b6000819050919050565b61054c83610517565b61056061055882610539565b8484546104b1565b825550505050565b600090565b610575610568565b610580818484610543565b505050565b5b818110156105a45761059960008261056d565b600181019050610586565b5050565b601f8211156105e9576105ba8161047f565b6105c384610494565b810160208510156105d2578190505b6105e66105de85610494565b830182610585565b50505b505050565b600082821c905092915050565b600061060c600019846008026105ee565b1980831691505092915050565b600061062583836105fb565b9150826002028217905092915050565b61063e82610414565b67ffffffffffffffff81111561065757610656610248565b5b610661825461044e565b61066c8282856105a8565b600060209050601f83116001811461069f576000841561068d578287015190505b6106978582610619565b8655506106ff565b601f1984166106ad8661047f565b60005b828110156106d5578489015182556001820191506020850194506020810190506106b0565b868310156106f257848901516106ee601f8916826105fb565b8355505b6001600288020188555050505b505050505050565b7f4e487b7100000000000000000000000000000000000000000000000000000000600052602160045260246000fd5b6117b7806107456000396000f3fe6080604052600436106100f35760003560e01c80638da5cb5b1161008a578063b9e2bea011610059578063b9e2bea014610293578063c3403ddf146102be578063daf8bd53146102e9578063f2fde38b14610314576100f3565b80638da5cb5b14610229578063919c4b0a146102545780639e0754491461027f578063a9709c0c14610289576100f3565b80633ccfd60b116100c65780633ccfd60b146101a257806351045fab146101ac578063715018a6146101d55780638801bf91146101ec576100f3565b80630f7a4590146100f857806311dba1811461012357806312897d07146101605780631ec6b60a1461018b575b600080fd5b34801561010457600080fd5b5061010d61033d565b60405161011a9190611079565b60405180910390f35b34801561012f57600080fd5b5061014a600480360381019061014591906110f7565b610350565b604051610157919061113d565b60405180910390f35b34801561016c57600080fd5b50610175610368565b604051610182919061113d565b60405180910390f35b34801561019757600080fd5b506101a061036e565b005b6101aa6103a3565b005b3480156101b857600080fd5b506101d360048036038101906101ce9190611184565b61084f565b005b3480156101e157600080fd5b506101ea6108e5565b005b3480156101f857600080fd5b50610213600480360381019061020e91906110f7565b6108f9565b604051610220919061113d565b60405180910390f35b34801561023557600080fd5b5061023e610911565b60405161024b91906111c0565b60405180910390f35b34801561026057600080fd5b5061026961093a565b604051610276919061113d565b60405180910390f35b610287610940565b005b6102916109f1565b005b34801561029f57600080fd5b506102a8610aa2565b6040516102b59190611398565b60405180910390f35b3480156102ca57600080fd5b506102d3610bfa565b6040516102e09190611079565b60405180910390f35b3480156102f557600080fd5b506102fe610ccd565b60405161030b9190611404565b60405180910390f35b34801561032057600080fd5b5061033b600480360381019061033691906110f7565b610d5b565b005b600260019054906101000a900460ff1681565b60066020528060005260406000206000915090505481565b60045481565b610376610de1565b6001600260006101000a81548160ff0219169083600481111561039c5761039b61127a565b5b0217905550565b600260048111156103b7576103b661127a565b5b600260009054906101000a900460ff1660048111156103d9576103d861127a565b5b036106b3576000600560003373ffffffffffffffffffffffffffffffffffffffff1673ffffffffffffffffffffffffffffffffffffffff1681526020019081526020016000205490506000600660003373ffffffffffffffffffffffffffffffffffffffff1673ffffffffffffffffffffffffffffffffffffffff16815260200190815260200160002054905060008211806104755750600081115b6104b4576040517f08c379a00000000000000000000000000000000000000000000000000000000081526004016104ab90611472565b60405180910390fd5b6000600560003373ffffffffffffffffffffffffffffffffffffffff1673ffffffffffffffffffffffffffffffffffffffff168152602001908152602001600020819055506000600660003373ffffffffffffffffffffffffffffffffffffffff1673ffffffffffffffffffffffffffffffffffffffff1681526020019081526020016000208190555060008211156105f55760003373ffffffffffffffffffffffffffffffffffffffff168360405161056d906114c3565b60006040518083038185875af1925050503d80600081146105aa576040519150601f19603f3d011682016040523d82523d6000602084013e6105af565b606091505b50509050806105f3576040517f08c379a00000000000000000000000000000000000000000000000000000000081526004016105ea90611524565b60405180910390fd5b505b60008111156106ac5760003373ffffffffffffffffffffffffffffffffffffffff1682604051610624906114c3565b60006040518083038185875af1925050503d8060008114610661576040519150601f19603f3d011682016040523d82523d6000602084013e610666565b606091505b50509050806106aa576040517f08c379a00000000000000000000000000000000000000000000000000000000081526004016106a190611590565b60405180910390fd5b505b505061084d565b6004808111156106c6576106c561127a565b5b600260009054906101000a900460ff1660048111156106e8576106e761127a565b5b0361084c5760006004546003546106ff91906115df565b610707610e68565b6107119190611613565b90506000600560003373ffffffffffffffffffffffffffffffffffffffff1673ffffffffffffffffffffffffffffffffffffffff168152602001908152602001600020819055506000600660003373ffffffffffffffffffffffffffffffffffffffff1673ffffffffffffffffffffffffffffffffffffffff1681526020019081526020016000208190555060003373ffffffffffffffffffffffffffffffffffffffff16826040516107c3906114c3565b60006040518083038185875af1925050503d8060008114610800576040519150601f19603f3d011682016040523d82523d6000602084013e610805565b606091505b5050905080610849576040517f08c379a0000000000000000000000000000000000000000000000000000000008152600401610840906116a1565b60405180910390fd5b50505b5b565b610857610de1565b6004600260006101000a81548160ff0219169083600481111561087d5761087c61127a565b5b021790555080600260016101000a81548160ff0219169083151502179055507f0d91d7e2574d629f04252d615142935e3cc2a9d06eeda1418bac7a71d3b2b4dd600260019054906101000a900460ff166040516108da9190611079565b60405180910390a150565b6108ed610de1565b6108f76000610f32565b565b60056020528060005260406000206000915090505481565b60008060009054906101000a900473ffffffffffffffffffffffffffffffffffffffff16905090565b60035481565b600160048111156109545761095361127a565b5b600260009054906101000a900460ff1660048111156109765761097561127a565b5b1461098057600080fd5b34600560003373ffffffffffffffffffffffffffffffffffffffff1673ffffffffffffffffffffffffffffffffffffffff16815260200190815260200160002060008282546109cf91906115df565b9250508190555034600360008282546109e891906115df565b92505081905550565b60016004811115610a0557610a0461127a565b5b600260009054906101000a900460ff166004811115610a2757610a2661127a565b5b14610a3157600080fd5b34600660003373ffffffffffffffffffffffffffffffffffffffff1673ffffffffffffffffffffffffffffffffffffffff1681526020019081526020016000206000828254610a8091906115df565b925050819055503460046000828254610a9991906115df565b92505081905550565b610aaa610ffe565b610ab2610ffe565b30816000019073ffffffffffffffffffffffffffffffffffffffff16908173ffffffffffffffffffffffffffffffffffffffff168152505060018054610af7906116f0565b80601f0160208091040260200160405190810160405280929190818152602001828054610b23906116f0565b8015610b705780601f10610b4557610100808354040283529160200191610b70565b820191906000526020600020905b815481529060010190602001808311610b5357829003601f168201915b50505050508160200181905250600260009054906101000a900460ff1681604001906004811115610ba457610ba361127a565b5b90816004811115610bb857610bb761127a565b5b81525050600354816060018181525050600454816080018181525050600260019054906101000a900460ff168160a00190151590811515815250508091505090565b6000610c04610de1565b60035460045410610c6e5760028060006101000a81548160ff02191690836004811115610c3457610c3361127a565b5b02179055507fd9b98126754488697fc3a0bc3e9712c57e60e8e41bc7b8c24fee5fa948d3e9dd60405160405180910390a160009050610cca565b6003600260006101000a81548160ff02191690836004811115610c9457610c9361127a565b5b02179055507fbf9067c9d0ba76fdfcb416bccec45fe88cda5437e5220b5a31d49b89d909567b60405160405180910390a1600190505b90565b60018054610cda906116f0565b80601f0160208091040260200160405190810160405280929190818152602001828054610d06906116f0565b8015610d535780601f10610d2857610100808354040283529160200191610d53565b820191906000526020600020905b815481529060010190602001808311610d3657829003601f168201915b505050505081565b610d63610de1565b600073ffffffffffffffffffffffffffffffffffffffff168173ffffffffffffffffffffffffffffffffffffffff1603610dd55760006040517f1e4fbdf7000000000000000000000000000000000000000000000000000000008152600401610dcc91906111c0565b60405180910390fd5b610dde81610f32565b50565b610de9610ff6565b73ffffffffffffffffffffffffffffffffffffffff16610e07610911565b73ffffffffffffffffffffffffffffffffffffffff1614610e6657610e2a610ff6565b6040517f118cdaa7000000000000000000000000000000000000000000000000000000008152600401610e5d91906111c0565b60405180910390fd5b565b6000600260019054906101000a900460ff1615610ed9576000600560003373ffffffffffffffffffffffffffffffffffffffff1673ffffffffffffffffffffffffffffffffffffffff16815260200190815260200160002054905060035481610ed19190611750565b915050610f2f565b6000600660003373ffffffffffffffffffffffffffffffffffffffff1673ffffffffffffffffffffffffffffffffffffffff16815260200190815260200160002054905060045481610f2b9190611750565b9150505b90565b60008060009054906101000a900473ffffffffffffffffffffffffffffffffffffffff169050816000806101000a81548173ffffffffffffffffffffffffffffffffffffffff021916908373ffffffffffffffffffffffffffffffffffffffff1602179055508173ffffffffffffffffffffffffffffffffffffffff168173ffffffffffffffffffffffffffffffffffffffff167f8be0079c531659141344cd1fd0a4f28419497f9722a3daafe3b4186f6b6457e060405160405180910390a35050565b600033905090565b6040518060c00160405280600073ffffffffffffffffffffffffffffffffffffffff16815260200160608152602001600060048111156110415761104061127a565b5b815260200160008152602001600081526020016000151581525090565b60008115159050919050565b6110738161105e565b82525050565b600060208201905061108e600083018461106a565b92915050565b600080fd5b600073ffffffffffffffffffffffffffffffffffffffff82169050919050565b60006110c482611099565b9050919050565b6110d4816110b9565b81146110df57600080fd5b50565b6000813590506110f1816110cb565b92915050565b60006020828403121561110d5761110c611094565b5b600061111b848285016110e2565b91505092915050565b6000819050919050565b61113781611124565b82525050565b6000602082019050611152600083018461112e565b92915050565b6111618161105e565b811461116c57600080fd5b50565b60008135905061117e81611158565b92915050565b60006020828403121561119a57611199611094565b5b60006111a88482850161116f565b91505092915050565b6111ba816110b9565b82525050565b60006020820190506111d560008301846111b1565b92915050565b6111e4816110b9565b82525050565b600081519050919050565b600082825260208201905092915050565b60005b83811015611224578082015181840152602081019050611209565b60008484015250505050565b6000601f19601f8301169050919050565b600061124c826111ea565b61125681856111f5565b9350611266818560208601611206565b61126f81611230565b840191505092915050565b7f4e487b7100000000000000000000000000000000000000000000000000000000600052602160045260246000fd5b600581106112ba576112b961127a565b5b50565b60008190506112cb826112a9565b919050565b60006112db826112bd565b9050919050565b6112eb816112d0565b82525050565b6112fa81611124565b82525050565b6113098161105e565b82525050565b600060c08301600083015161132760008601826111db565b506020830151848203602086015261133f8282611241565b915050604083015161135460408601826112e2565b50606083015161136760608601826112f1565b50608083015161137a60808601826112f1565b5060a083015161138d60a0860182611300565b508091505092915050565b600060208201905081810360008301526113b2818461130f565b905092915050565b600082825260208201905092915050565b60006113d6826111ea565b6113e081856113ba565b93506113f0818560208601611206565b6113f981611230565b840191505092915050565b6000602082019050818103600083015261141e81846113cb565b905092915050565b7f4e6f2066756e647320746f207769746864726177000000000000000000000000600082015250565b600061145c6014836113ba565b915061146782611426565b602082019050919050565b6000602082019050818103600083015261148b8161144f565b9050919050565b600081905092915050565b50565b60006114ad600083611492565b91506114b88261149d565b600082019050919050565b60006114ce826114a0565b9150819050919050565b7f5769746864726177616c206f662027596573272066756e6473206661696c6564600082015250565b600061150e6020836113ba565b9150611519826114d8565b602082019050919050565b6000602082019050818103600083015261153d81611501565b9050919050565b7f5769746864726177616c206f6620274e6f272066756e6473206661696c656400600082015250565b600061157a601f836113ba565b915061158582611544565b602082019050919050565b600060208201905081810360008301526115a98161156d565b9050919050565b7f4e487b7100000000000000000000000000000000000000000000000000000000600052601160045260246000fd5b60006115ea82611124565b91506115f583611124565b925082820190508082111561160d5761160c6115b0565b5b92915050565b600061161e82611124565b915061162983611124565b925082820261163781611124565b9150828204841483151761164e5761164d6115b0565b5b5092915050565b7f436c61696d696e672072657761726473206661696c6564000000000000000000600082015250565b600061168b6017836113ba565b915061169682611655565b602082019050919050565b600060208201905081810360008301526116ba8161167e565b9050919050565b7f4e487b7100000000000000000000000000000000000000000000000000000000600052602260045260246000fd5b6000600282049050600182168061170857607f821691505b60208210810361171b5761171a6116c1565b5b50919050565b7f4e487b7100000000000000000000000000000000000000000000000000000000600052601260045260246000fd5b600061175b82611124565b915061176683611124565b92508261177657611775611721565b5b82820490509291505056fea2646970667358221220f20adec3e49c453d736f99ae71fe1bbdcfec0a266b673c9f6cd8df11f12ba70b64736f6c634300081a0033a2646970667358221220822039e1986284ff55ad17539af08713f7e8a040f900d97dab92a9a493b3ed8364736f6c634300081a00336080604052348015600f57600080fd5b506101f58061001f6000396000f3fe608060405234801561001057600080fd5b50600436106100365760003560e01c806382dcc26d1461003b578063de29278914610057575b600080fd5b610055600480360381019061005091906100fe565b610075565b005b61005f6100ba565b60405161006c919061013a565b60405180910390f35b806000819055507fb44649ee09be3c07f6be7f169266f5027caa7f0eec61d4b7e409cbe15d7e32f6306000546040516100af929190610196565b60405180910390a150565b60008054905090565b600080fd5b6000819050919050565b6100db816100c8565b81146100e657600080fd5b50565b6000813590506100f8816100d2565b92915050565b600060208284031215610114576101136100c3565b5b6000610122848285016100e9565b91505092915050565b610134816100c8565b82525050565b600060208201905061014f600083018461012b565b92915050565b600073ffffffffffffffffffffffffffffffffffffffff82169050919050565b600061018082610155565b9050919050565b61019081610175565b82525050565b60006040820190506101ab6000830185610187565b6101b8602083018461012b565b939250505056fea2646970667358221220393528d01fd00a0ba20bbb4ca9c163696b6208292237f069cdd509f1020f505264736f6c634300081a0033",
  "linkReferences": {},
  "deployedLinkReferences": {}
}