{
  "_format": "hh-sol-artifact-1",
  "contractName": "FutarchyOracle",
  "sourceName": "contracts/FutarchyOracle.sol",
  "abi": [
    {
      "inputs": [],
      "stateMutability": "nonpayable",
      "type": "constructor"
    },
    {
      "anonymous": false,
      "inputs": [
        {
          "indexed": false,
          "internalType": "address",
          "name": "oracle",
          "type": "address"
        },
        {
          "indexed": false,
          "internalType": "uint256",
          "name": "result",
          "type": "uint256"
        }
      ],
      "name": "OracleResultUpdated",
      "type": "event"
    },
    {
      "inputs": [],
      "name": "getResult",
      "outputs": [
        {
          "internalType": "uint256",
          "name": "",
          "type": "uint256"
        }
      ],
      "stateMutability": "view",
      "type": "function"
    },
    {
      "inputs": [
        {
          "internalType": "uint256",
          "name": "_result",
          "type": "uint256"
        }
      ],
      "name": "updateResult",
      "outputs": [],
      "stateMutability": "nonpayable",
      "type": "function"
    }
  ],
  "bytecode": "0x6080604052348015600f57600080fd5b5060ec8061001e6000396000f3fe6080604052348015600f57600080fd5b506004361060325760003560e01c806382dcc26d146037578063de292789146048575b600080fd5b60466042366004609e565b605d565b005b60005460405190815260200160405180910390f35b600081905560408051308152602081018390527fb44649ee09be3c07f6be7f169266f5027caa7f0eec61d4b7e409cbe15d7e32f6910160405180910390a150565b60006020828403121560af57600080fd5b503591905056fea2646970667358221220f7ca80cb6366baf735da2ae4f8fa175bdc0950663d093c952e4642cbfdab068964736f6c634300081a0033",
  "linkReferences": {},
  "deployedLinkReferences": {}
}