{
  "_format": "hh-sol-artifact-1",
  "contractName": "FutarchyProposal",
  "sourceName": "contracts/FutarchyProposal.sol",
  "abi": [
    {
      "inputs": [
        {
          "internalType": "address",
          "name": "_owner",
          "type": "address"
        },
        {
          "internalType": "string",
          "name": "_cid",
          "type": "string"
        }
      ],
      "stateMutability": "nonpayable",
      "type": "constructor"
    },
    {
      "inputs": [
        {
          "internalType": "address",
          "name": "owner",
          "type": "address"
        }
      ],
      "name": "OwnableInvalidOwner",
      "type": "error"
    },
    {
      "inputs": [
        {
          "internalType": "address",
          "name": "account",
          "type": "address"
        }
      ],
      "name": "OwnableUnauthorizedAccount",
      "type": "error"
    },
    {
      "anonymous": false,
      "inputs": [
        {
          "indexed": true,
          "internalType": "address",
          "name": "previousOwner",
          "type": "address"
        },
        {
          "indexed": true,
          "internalType": "address",
          "name": "newOwner",
          "type": "address"
        }
      ],
      "name": "OwnershipTransferred",
      "type": "event"
    },
    {
      "anonymous": false,
      "inputs": [],
      "name": "ProposalAccepted",
      "type": "event"
    },
    {
      "anonymous": false,
      "inputs": [],
      "name": "ProposalCanceled",
      "type": "event"
    },
    {
      "anonymous": false,
      "inputs": [
        {
          "indexed": false,
          "internalType": "bool",
          "name": "goalAchieved",
          "type": "bool"
        }
      ],
      "name": "ProposalClosed",
      "type": "event"
    },
    {
      "anonymous": false,
      "inputs": [],
      "name": "ProposalStarted",
      "type": "event"
    },
    {
      "inputs": [],
      "name": "balanceNo",
      "outputs": [
        {
          "internalType": "uint256",
          "name": "",
          "type": "uint256"
        }
      ],
      "stateMutability": "view",
      "type": "function"
    },
    {
      "inputs": [],
      "name": "balanceYes",
      "outputs": [
        {
          "internalType": "uint256",
          "name": "",
          "type": "uint256"
        }
      ],
      "stateMutability": "view",
      "type": "function"
    },
    {
      "inputs": [],
      "name": "buyNo",
      "outputs": [],
      "stateMutability": "payable",
      "type": "function"
    },
    {
      "inputs": [],
      "name": "buyYes",
      "outputs": [],
      "stateMutability": "payable",
      "type": "function"
    },
    {
      "inputs": [],
      "name": "endVoting",
      "outputs": [
        {
          "internalType": "bool",
          "name": "",
          "type": "bool"
        }
      ],
      "stateMutability": "nonpayable",
      "type": "function"
    },
    {
      "inputs": [],
      "name": "getProposal",
      "outputs": [
        {
          "components": [
            {
              "internalType": "address",
              "name": "addr",
              "type": "address"
            },
            {
              "internalType": "string",
              "name": "remoteCid",
              "type": "string"
            },
            {
              "internalType": "enum FutarchyProposal.ProposalStatus",
              "name": "status",
              "type": "uint8"
            },
            {
              "internalType": "uint256",
              "name": "balanceYes",
              "type": "uint256"
            },
            {
              "internalType": "uint256",
              "name": "balanceNo",
              "type": "uint256"
            },
            {
              "internalType": "bool",
              "name": "goalAchieved",
              "type": "bool"
            }
          ],
          "internalType": "struct FutarchyProposal.Proposal",
          "name": "",
          "type": "tuple"
        }
      ],
      "stateMutability": "view",
      "type": "function"
    },
    {
      "inputs": [],
      "name": "goalAchieved",
      "outputs": [
        {
          "internalType": "bool",
          "name": "",
          "type": "bool"
        }
      ],
      "stateMutability": "view",
      "type": "function"
    },
    {
      "inputs": [
        {
          "internalType": "address",
          "name": "",
          "type": "address"
        }
      ],
      "name": "mappingNo",
      "outputs": [
        {
          "internalType": "uint256",
          "name": "",
          "type": "uint256"
        }
      ],
      "stateMutability": "view",
      "type": "function"
    },
    {
      "inputs": [
        {
          "internalType": "address",
          "name": "",
          "type": "address"
        }
      ],
      "name": "mappingYes",
      "outputs": [
        {
          "internalType": "uint256",
          "name": "",
          "type": "uint256"
        }
      ],
      "stateMutability": "view",
      "type": "function"
    },
    {
      "inputs": [],
      "name": "owner",
      "outputs": [
        {
          "internalType": "address",
          "name": "",
          "type": "address"
        }
      ],
      "stateMutability": "view",
      "type": "function"
    },
    {
      "inputs": [],
      "name": "remoteCid",
      "outputs": [
        {
          "internalType": "string",
          "name": "",
          "type": "string"
        }
      ],
      "stateMutability": "view",
      "type": "function"
    },
    {
      "inputs": [],
      "name": "renounceOwnership",
      "outputs": [],
      "stateMutability": "nonpayable",
      "type": "function"
    },
    {
      "inputs": [],
      "name": "startVoting",
      "outputs": [],
      "stateMutability": "nonpayable",
      "type": "function"
    },
    {
      "inputs": [
        {
          "internalType": "bool",
          "name": "_goalAchieved",
          "type": "bool"
        }
      ],
      "name": "tallyGoal",
      "outputs": [],
      "stateMutability": "nonpayable",
      "type": "function"
    },
    {
      "inputs": [
        {
          "internalType": "address",
          "name": "newOwner",
          "type": "address"
        }
      ],
      "name": "transferOwnership",
      "outputs": [],
      "stateMutability": "nonpayable",
      "type": "function"
    },
    {
      "inputs": [],
      "name": "withdraw",
      "outputs": [],
      "stateMutability": "payable",
      "type": "function"
    }
  ],
  "bytecode": "0x608060405234801561001057600080fd5b50604051611efc380380611efc8339818101604052810190610032919061038e565b81600073ffffffffffffffffffffffffffffffffffffffff168173ffffffffffffffffffffffffffffffffffffffff16036100a55760006040517f1e4fbdf700000000000000000000000000000000000000000000000000000000815260040161009c91906103f9565b60405180910390fd5b6100b4816100f760201b60201c565b5080600190816100c49190610635565b506000600260006101000a81548160ff021916908360048111156100eb576100ea610707565b5b02179055505050610736565b60008060009054906101000a900473ffffffffffffffffffffffffffffffffffffffff169050816000806101000a81548173ffffffffffffffffffffffffffffffffffffffff021916908373ffffffffffffffffffffffffffffffffffffffff1602179055508173ffffffffffffffffffffffffffffffffffffffff168173ffffffffffffffffffffffffffffffffffffffff167f8be0079c531659141344cd1fd0a4f28419497f9722a3daafe3b4186f6b6457e060405160405180910390a35050565b6000604051905090565b600080fd5b600080fd5b600073ffffffffffffffffffffffffffffffffffffffff82169050919050565b60006101fa826101cf565b9050919050565b61020a816101ef565b811461021557600080fd5b50565b60008151905061022781610201565b92915050565b600080fd5b600080fd5b6000601f19601f8301169050919050565b7f4e487b7100000000000000000000000000000000000000000000000000000000600052604160045260246000fd5b61028082610237565b810181811067ffffffffffffffff8211171561029f5761029e610248565b5b80604052505050565b60006102b26101bb565b90506102be8282610277565b919050565b600067ffffffffffffffff8211156102de576102dd610248565b5b6102e782610237565b9050602081019050919050565b60005b838110156103125780820151818401526020810190506102f7565b60008484015250505050565b600061033161032c846102c3565b6102a8565b90508281526020810184848401111561034d5761034c610232565b5b6103588482856102f4565b509392505050565b600082601f8301126103755761037461022d565b5b815161038584826020860161031e565b91505092915050565b600080604083850312156103a5576103a46101c5565b5b60006103b385828601610218565b925050602083015167ffffffffffffffff8111156103d4576103d36101ca565b5b6103e085828601610360565b9150509250929050565b6103f3816101ef565b82525050565b600060208201905061040e60008301846103ea565b92915050565b600081519050919050565b7f4e487b7100000000000000000000000000000000000000000000000000000000600052602260045260246000fd5b6000600282049050600182168061046657607f821691505b6020821081036104795761047861041f565b5b50919050565b60008190508160005260206000209050919050565b60006020601f8301049050919050565b600082821b905092915050565b6000600883026104e17fffffffffffffffffffffffffffffffffffffffffffffffffffffffffffffffff826104a4565b6104eb86836104a4565b95508019841693508086168417925050509392505050565b6000819050919050565b6000819050919050565b600061053261052d61052884610503565b61050d565b610503565b9050919050565b6000819050919050565b61054c83610517565b61056061055882610539565b8484546104b1565b825550505050565b600090565b610575610568565b610580818484610543565b505050565b5b818110156105a45761059960008261056d565b600181019050610586565b5050565b601f8211156105e9576105ba8161047f565b6105c384610494565b810160208510156105d2578190505b6105e66105de85610494565b830182610585565b50505b505050565b600082821c905092915050565b600061060c600019846008026105ee565b1980831691505092915050565b600061062583836105fb565b9150826002028217905092915050565b61063e82610414565b67ffffffffffffffff81111561065757610656610248565b5b610661825461044e565b61066c8282856105a8565b600060209050601f83116001811461069f576000841561068d578287015190505b6106978582610619565b8655506106ff565b601f1984166106ad8661047f565b60005b828110156106d5578489015182556001820191506020850194506020810190506106b0565b868310156106f257848901516106ee601f8916826105fb565b8355505b6001600288020188555050505b505050505050565b7f4e487b7100000000000000000000000000000000000000000000000000000000600052602160045260246000fd5b6117b7806107456000396000f3fe6080604052600436106100f35760003560e01c80638da5cb5b1161008a578063b9e2bea011610059578063b9e2bea014610293578063c3403ddf146102be578063daf8bd53146102e9578063f2fde38b14610314576100f3565b80638da5cb5b14610229578063919c4b0a146102545780639e0754491461027f578063a9709c0c14610289576100f3565b80633ccfd60b116100c65780633ccfd60b146101a257806351045fab146101ac578063715018a6146101d55780638801bf91146101ec576100f3565b80630f7a4590146100f857806311dba1811461012357806312897d07146101605780631ec6b60a1461018b575b600080fd5b34801561010457600080fd5b5061010d61033d565b60405161011a9190611079565b60405180910390f35b34801561012f57600080fd5b5061014a600480360381019061014591906110f7565b610350565b604051610157919061113d565b60405180910390f35b34801561016c57600080fd5b50610175610368565b604051610182919061113d565b60405180910390f35b34801561019757600080fd5b506101a061036e565b005b6101aa6103a3565b005b3480156101b857600080fd5b506101d360048036038101906101ce9190611184565b61084f565b005b3480156101e157600080fd5b506101ea6108e5565b005b3480156101f857600080fd5b50610213600480360381019061020e91906110f7565b6108f9565b604051610220919061113d565b60405180910390f35b34801561023557600080fd5b5061023e610911565b60405161024b91906111c0565b60405180910390f35b34801561026057600080fd5b5061026961093a565b604051610276919061113d565b60405180910390f35b610287610940565b005b6102916109f1565b005b34801561029f57600080fd5b506102a8610aa2565b6040516102b59190611398565b60405180910390f35b3480156102ca57600080fd5b506102d3610bfa565b6040516102e09190611079565b60405180910390f35b3480156102f557600080fd5b506102fe610ccd565b60405161030b9190611404565b60405180910390f35b34801561032057600080fd5b5061033b600480360381019061033691906110f7565b610d5b565b005b600260019054906101000a900460ff1681565b60066020528060005260406000206000915090505481565b60045481565b610376610de1565b6001600260006101000a81548160ff0219169083600481111561039c5761039b61127a565b5b0217905550565b600260048111156103b7576103b661127a565b5b600260009054906101000a900460ff1660048111156103d9576103d861127a565b5b036106b3576000600560003373ffffffffffffffffffffffffffffffffffffffff1673ffffffffffffffffffffffffffffffffffffffff1681526020019081526020016000205490506000600660003373ffffffffffffffffffffffffffffffffffffffff1673ffffffffffffffffffffffffffffffffffffffff16815260200190815260200160002054905060008211806104755750600081115b6104b4576040517f08c379a00000000000000000000000000000000000000000000000000000000081526004016104ab90611472565b60405180910390fd5b6000600560003373ffffffffffffffffffffffffffffffffffffffff1673ffffffffffffffffffffffffffffffffffffffff168152602001908152602001600020819055506000600660003373ffffffffffffffffffffffffffffffffffffffff1673ffffffffffffffffffffffffffffffffffffffff1681526020019081526020016000208190555060008211156105f55760003373ffffffffffffffffffffffffffffffffffffffff168360405161056d906114c3565b60006040518083038185875af1925050503d80600081146105aa576040519150601f19603f3d011682016040523d82523d6000602084013e6105af565b606091505b50509050806105f3576040517f08c379a00000000000000000000000000000000000000000000000000000000081526004016105ea90611524565b60405180910390fd5b505b60008111156106ac5760003373ffffffffffffffffffffffffffffffffffffffff1682604051610624906114c3565b60006040518083038185875af1925050503d8060008114610661576040519150601f19603f3d011682016040523d82523d6000602084013e610666565b606091505b50509050806106aa576040517f08c379a00000000000000000000000000000000000000000000000000000000081526004016106a190611590565b60405180910390fd5b505b505061084d565b6004808111156106c6576106c561127a565b5b600260009054906101000a900460ff1660048111156106e8576106e761127a565b5b0361084c5760006004546003546106ff91906115df565b610707610e68565b6107119190611613565b90506000600560003373ffffffffffffffffffffffffffffffffffffffff1673ffffffffffffffffffffffffffffffffffffffff168152602001908152602001600020819055506000600660003373ffffffffffffffffffffffffffffffffffffffff1673ffffffffffffffffffffffffffffffffffffffff1681526020019081526020016000208190555060003373ffffffffffffffffffffffffffffffffffffffff16826040516107c3906114c3565b60006040518083038185875af1925050503d8060008114610800576040519150601f19603f3d011682016040523d82523d6000602084013e610805565b606091505b5050905080610849576040517f08c379a0000000000000000000000000000000000000000000000000000000008152600401610840906116a1565b60405180910390fd5b50505b5b565b610857610de1565b6004600260006101000a81548160ff0219169083600481111561087d5761087c61127a565b5b021790555080600260016101000a81548160ff0219169083151502179055507f0d91d7e2574d629f04252d615142935e3cc2a9d06eeda1418bac7a71d3b2b4dd600260019054906101000a900460ff166040516108da9190611079565b60405180910390a150565b6108ed610de1565b6108f76000610f32565b565b60056020528060005260406000206000915090505481565b60008060009054906101000a900473ffffffffffffffffffffffffffffffffffffffff16905090565b60035481565b600160048111156109545761095361127a565b5b600260009054906101000a900460ff1660048111156109765761097561127a565b5b1461098057600080fd5b34600560003373ffffffffffffffffffffffffffffffffffffffff1673ffffffffffffffffffffffffffffffffffffffff16815260200190815260200160002060008282546109cf91906115df565b9250508190555034600360008282546109e891906115df565b92505081905550565b60016004811115610a0557610a0461127a565b5b600260009054906101000a900460ff166004811115610a2757610a2661127a565b5b14610a3157600080fd5b34600660003373ffffffffffffffffffffffffffffffffffffffff1673ffffffffffffffffffffffffffffffffffffffff1681526020019081526020016000206000828254610a8091906115df565b925050819055503460046000828254610a9991906115df565b92505081905550565b610aaa610ffe565b610ab2610ffe565b30816000019073ffffffffffffffffffffffffffffffffffffffff16908173ffffffffffffffffffffffffffffffffffffffff168152505060018054610af7906116f0565b80601f0160208091040260200160405190810160405280929190818152602001828054610b23906116f0565b8015610b705780601f10610b4557610100808354040283529160200191610b70565b820191906000526020600020905b815481529060010190602001808311610b5357829003601f168201915b50505050508160200181905250600260009054906101000a900460ff1681604001906004811115610ba457610ba361127a565b5b90816004811115610bb857610bb761127a565b5b81525050600354816060018181525050600454816080018181525050600260019054906101000a900460ff168160a00190151590811515815250508091505090565b6000610c04610de1565b60035460045410610c6e5760028060006101000a81548160ff02191690836004811115610c3457610c3361127a565b5b02179055507fd9b98126754488697fc3a0bc3e9712c57e60e8e41bc7b8c24fee5fa948d3e9dd60405160405180910390a160009050610cca565b6003600260006101000a81548160ff02191690836004811115610c9457610c9361127a565b5b02179055507fbf9067c9d0ba76fdfcb416bccec45fe88cda5437e5220b5a31d49b89d909567b60405160405180910390a1600190505b90565b60018054610cda906116f0565b80601f0160208091040260200160405190810160405280929190818152602001828054610d06906116f0565b8015610d535780601f10610d2857610100808354040283529160200191610d53565b820191906000526020600020905b815481529060010190602001808311610d3657829003601f168201915b505050505081565b610d63610de1565b600073ffffffffffffffffffffffffffffffffffffffff168173ffffffffffffffffffffffffffffffffffffffff1603610dd55760006040517f1e4fbdf7000000000000000000000000000000000000000000000000000000008152600401610dcc91906111c0565b60405180910390fd5b610dde81610f32565b50565b610de9610ff6565b73ffffffffffffffffffffffffffffffffffffffff16610e07610911565b73ffffffffffffffffffffffffffffffffffffffff1614610e6657610e2a610ff6565b6040517f118cdaa7000000000000000000000000000000000000000000000000000000008152600401610e5d91906111c0565b60405180910390fd5b565b6000600260019054906101000a900460ff1615610ed9576000600560003373ffffffffffffffffffffffffffffffffffffffff1673ffffffffffffffffffffffffffffffffffffffff16815260200190815260200160002054905060035481610ed19190611750565b915050610f2f565b6000600660003373ffffffffffffffffffffffffffffffffffffffff1673ffffffffffffffffffffffffffffffffffffffff16815260200190815260200160002054905060045481610f2b9190611750565b9150505b90565b60008060009054906101000a900473ffffffffffffffffffffffffffffffffffffffff169050816000806101000a81548173ffffffffffffffffffffffffffffffffffffffff021916908373ffffffffffffffffffffffffffffffffffffffff1602179055508173ffffffffffffffffffffffffffffffffffffffff168173ffffffffffffffffffffffffffffffffffffffff167f8be0079c531659141344cd1fd0a4f28419497f9722a3daafe3b4186f6b6457e060405160405180910390a35050565b600033905090565b6040518060c00160405280600073ffffffffffffffffffffffffffffffffffffffff16815260200160608152602001600060048111156110415761104061127a565b5b815260200160008152602001600081526020016000151581525090565b60008115159050919050565b6110738161105e565b82525050565b600060208201905061108e600083018461106a565b92915050565b600080fd5b600073ffffffffffffffffffffffffffffffffffffffff82169050919050565b60006110c482611099565b9050919050565b6110d4816110b9565b81146110df57600080fd5b50565b6000813590506110f1816110cb565b92915050565b60006020828403121561110d5761110c611094565b5b600061111b848285016110e2565b91505092915050565b6000819050919050565b61113781611124565b82525050565b6000602082019050611152600083018461112e565b92915050565b6111618161105e565b811461116c57600080fd5b50565b60008135905061117e81611158565b92915050565b60006020828403121561119a57611199611094565b5b60006111a88482850161116f565b91505092915050565b6111ba816110b9565b82525050565b60006020820190506111d560008301846111b1565b92915050565b6111e4816110b9565b82525050565b600081519050919050565b600082825260208201905092915050565b60005b83811015611224578082015181840152602081019050611209565b60008484015250505050565b6000601f19601f8301169050919050565b600061124c826111ea565b61125681856111f5565b9350611266818560208601611206565b61126f81611230565b840191505092915050565b7f4e487b7100000000000000000000000000000000000000000000000000000000600052602160045260246000fd5b600581106112ba576112b961127a565b5b50565b60008190506112cb826112a9565b919050565b60006112db826112bd565b9050919050565b6112eb816112d0565b82525050565b6112fa81611124565b82525050565b6113098161105e565b82525050565b600060c08301600083015161132760008601826111db565b506020830151848203602086015261133f8282611241565b915050604083015161135460408601826112e2565b50606083015161136760608601826112f1565b50608083015161137a60808601826112f1565b5060a083015161138d60a0860182611300565b508091505092915050565b600060208201905081810360008301526113b2818461130f565b905092915050565b600082825260208201905092915050565b60006113d6826111ea565b6113e081856113ba565b93506113f0818560208601611206565b6113f981611230565b840191505092915050565b6000602082019050818103600083015261141e81846113cb565b905092915050565b7f4e6f2066756e647320746f207769746864726177000000000000000000000000600082015250565b600061145c6014836113ba565b915061146782611426565b602082019050919050565b6000602082019050818103600083015261148b8161144f565b9050919050565b600081905092915050565b50565b60006114ad600083611492565b91506114b88261149d565b600082019050919050565b60006114ce826114a0565b9150819050919050565b7f5769746864726177616c206f662027596573272066756e6473206661696c6564600082015250565b600061150e6020836113ba565b9150611519826114d8565b602082019050919050565b6000602082019050818103600083015261153d81611501565b9050919050565b7f5769746864726177616c206f6620274e6f272066756e6473206661696c656400600082015250565b600061157a601f836113ba565b915061158582611544565b602082019050919050565b600060208201905081810360008301526115a98161156d565b9050919050565b7f4e487b7100000000000000000000000000000000000000000000000000000000600052601160045260246000fd5b60006115ea82611124565b91506115f583611124565b925082820190508082111561160d5761160c6115b0565b5b92915050565b600061161e82611124565b915061162983611124565b925082820261163781611124565b9150828204841483151761164e5761164d6115b0565b5b5092915050565b7f436c61696d696e672072657761726473206661696c6564000000000000000000600082015250565b600061168b6017836113ba565b915061169682611655565b602082019050919050565b600060208201905081810360008301526116ba8161167e565b9050919050565b7f4e487b7100000000000000000000000000000000000000000000000000000000600052602260045260246000fd5b6000600282049050600182168061170857607f821691505b60208210810361171b5761171a6116c1565b5b50919050565b7f4e487b7100000000000000000000000000000000000000000000000000000000600052601260045260246000fd5b600061175b82611124565b915061176683611124565b92508261177657611775611721565b5b82820490509291505056fea2646970667358221220f20adec3e49c453d736f99ae71fe1bbdcfec0a266b673c9f6cd8df11f12ba70b64736f6c634300081a0033",
  "linkReferences": {},
  "deployedLinkReferences": {}
}