{
  "_format": "hh-sol-artifact-1",
  "contractName": "FutarchyOracle",
  "sourceName": "contracts/FutarchyOracle.sol",
  "abi": [
    {
      "inputs": [],
      "stateMutability": "nonpayable",
      "type": "constructor"
    },
    {
      "anonymous": false,
      "inputs": [
        {
          "indexed": false,
          "internalType": "address",
          "name": "oracle",
          "type": "address"
        },
        {
          "indexed": false,
          "internalType": "uint256",
          "name": "result",
          "type": "uint256"
        }
      ],
      "name": "OracleResultUpdated",
      "type": "event"
    },
    {
      "inputs": [],
      "name": "getResult",
      "outputs": [
        {
          "internalType": "uint256",
          "name": "",
          "type": "uint256"
        }
      ],
      "stateMutability": "view",
      "type": "function"
    },
    {
      "inputs": [
        {
          "internalType": "uint256",
          "name": "_result",
          "type": "uint256"
        }
      ],
      "name": "updateResult",
      "outputs": [],
      "stateMutability": "nonpayable",
      "type": "function"
    }
  ],
  "bytecode": "0x6080604052348015600f57600080fd5b506101f58061001f6000396000f3fe608060405234801561001057600080fd5b50600436106100365760003560e01c806382dcc26d1461003b578063de29278914610057575b600080fd5b610055600480360381019061005091906100fe565b610075565b005b61005f6100ba565b60405161006c919061013a565b60405180910390f35b806000819055507fb44649ee09be3c07f6be7f169266f5027caa7f0eec61d4b7e409cbe15d7e32f6306000546040516100af929190610196565b60405180910390a150565b60008054905090565b600080fd5b6000819050919050565b6100db816100c8565b81146100e657600080fd5b50565b6000813590506100f8816100d2565b92915050565b600060208284031215610114576101136100c3565b5b6000610122848285016100e9565b91505092915050565b610134816100c8565b82525050565b600060208201905061014f600083018461012b565b92915050565b600073ffffffffffffffffffffffffffffffffffffffff82169050919050565b600061018082610155565b9050919050565b61019081610175565b82525050565b60006040820190506101ab6000830185610187565b6101b8602083018461012b565b939250505056fea2646970667358221220393528d01fd00a0ba20bbb4ca9c163696b6208292237f069cdd509f1020f505264736f6c634300081a0033",
  "linkReferences": {},
  "deployedLinkReferences": {}
}