{
  "_format": "hh-sol-artifact-1",
  "contractName": "FutarchyGoal",
  "sourceName": "contracts/FutarchyGoal.sol",
  "abi": [
    {
      "inputs": [
        {
          "internalType": "string",
          "name": "_cid",
          "type": "string"
        },
        {
          "internalType": "string",
          "name": "_pcid",
          "type": "string"
        },
        {
          "internalType": "address",
          "name": "_owner",
          "type": "address"
        },
        {
          "internalType": "uint256",
          "name": "_goalMaturity",
          "type": "uint256"
        },
        {
          "internalType": "uint256",
          "name": "_goalValue",
          "type": "uint256"
        },
        {
          "internalType": "uint256",
          "name": "_votingDeadline",
          "type": "uint256"
        },
        {
          "internalType": "bool",
          "name": "_demo",
          "type": "bool"
        }
      ],
      "stateMutability": "nonpayable",
      "type": "constructor"
    },
    {
      "inputs": [
        {
          "internalType": "address",
          "name": "owner",
          "type": "address"
        }
      ],
      "name": "OwnableInvalidOwner",
      "type": "error"
    },
    {
      "inputs": [
        {
          "internalType": "address",
          "name": "account",
          "type": "address"
        }
      ],
      "name": "OwnableUnauthorizedAccount",
      "type": "error"
    },
    {
      "anonymous": false,
      "inputs": [
        {
          "indexed": true,
          "internalType": "address",
          "name": "previousOwner",
          "type": "address"
        },
        {
          "indexed": true,
          "internalType": "address",
          "name": "newOwner",
          "type": "address"
        }
      ],
      "name": "OwnershipTransferred",
      "type": "event"
    },
    {
      "anonymous": false,
      "inputs": [
        {
          "indexed": false,
          "internalType": "uint256",
          "name": "_proposalId",
          "type": "uint256"
        },
        {
          "indexed": false,
          "internalType": "address",
          "name": "_proposalAddr",
          "type": "address"
        }
      ],
      "name": "ProposalAdded",
      "type": "event"
    },
    {
      "inputs": [],
      "name": "currentProposal",
      "outputs": [
        {
          "internalType": "uint256",
          "name": "",
          "type": "uint256"
        }
      ],
      "stateMutability": "view",
      "type": "function"
    },
    {
      "inputs": [],
      "name": "demo",
      "outputs": [
        {
          "internalType": "bool",
          "name": "",
          "type": "bool"
        }
      ],
      "stateMutability": "view",
      "type": "function"
    },
    {
      "inputs": [],
      "name": "endProposalVoting",
      "outputs": [],
      "stateMutability": "nonpayable",
      "type": "function"
    },
    {
      "inputs": [],
      "name": "getGoal",
      "outputs": [
        {
          "components": [
            {
              "internalType": "address",
              "name": "addr",
              "type": "address"
            },
            {
              "internalType": "string",
              "name": "remoteCid",
              "type": "string"
            },
            {
              "internalType": "address[]",
              "name": "proposals",
              "type": "address[]"
            },
            {
              "internalType": "uint256",
              "name": "goalMaturity",
              "type": "uint256"
            },
            {
              "internalType": "uint256",
              "name": "goalValue",
              "type": "uint256"
            },
            {
              "internalType": "uint256",
              "name": "votingDeadline",
              "type": "uint256"
            },
            {
              "internalType": "address",
              "name": "currentProposal",
              "type": "address"
            },
            {
              "internalType": "uint256",
              "name": "startTime",
              "type": "uint256"
            }
          ],
          "internalType": "struct FutarchyGoal.Goal",
          "name": "",
          "type": "tuple"
        }
      ],
      "stateMutability": "view",
      "type": "function"
    },
    {
      "inputs": [
        {
          "internalType": "uint256",
          "name": "_proposalId",
          "type": "uint256"
        }
      ],
      "name": "getProposal",
      "outputs": [
        {
          "internalType": "address",
          "name": "",
          "type": "address"
        }
      ],
      "stateMutability": "view",
      "type": "function"
    },
    {
      "inputs": [],
      "name": "goalAchieved",
      "outputs": [],
      "stateMutability": "nonpayable",
      "type": "function"
    },
    {
      "inputs": [],
      "name": "goalMaturity",
      "outputs": [
        {
          "internalType": "uint256",
          "name": "",
          "type": "uint256"
        }
      ],
      "stateMutability": "view",
      "type": "function"
    },
    {
      "inputs": [],
      "name": "goalValue",
      "outputs": [
        {
          "internalType": "uint256",
          "name": "",
          "type": "uint256"
        }
      ],
      "stateMutability": "view",
      "type": "function"
    },
    {
      "inputs": [],
      "name": "nbProposals",
      "outputs": [
        {
          "internalType": "uint256",
          "name": "",
          "type": "uint256"
        }
      ],
      "stateMutability": "view",
      "type": "function"
    },
    {
      "inputs": [],
      "name": "oracle",
      "outputs": [
        {
          "internalType": "address",
          "name": "",
          "type": "address"
        }
      ],
      "stateMutability": "view",
      "type": "function"
    },
    {
      "inputs": [],
      "name": "owner",
      "outputs": [
        {
          "internalType": "address",
          "name": "",
          "type": "address"
        }
      ],
      "stateMutability": "view",
      "type": "function"
    },
    {
      "inputs": [
        {
          "internalType": "uint256",
          "name": "",
          "type": "uint256"
        }
      ],
      "name": "proposals",
      "outputs": [
        {
          "internalType": "address",
          "name": "",
          "type": "address"
        }
      ],
      "stateMutability": "view",
      "type": "function"
    },
    {
      "inputs": [],
      "name": "remoteCid",
      "outputs": [
        {
          "internalType": "string",
          "name": "",
          "type": "string"
        }
      ],
      "stateMutability": "view",
      "type": "function"
    },
    {
      "inputs": [],
      "name": "renounceOwnership",
      "outputs": [],
      "stateMutability": "nonpayable",
      "type": "function"
    },
    {
      "inputs": [],
      "name": "startTime",
      "outputs": [
        {
          "internalType": "uint256",
          "name": "",
          "type": "uint256"
        }
      ],
      "stateMutability": "view",
      "type": "function"
    },
    {
      "inputs": [
        {
          "internalType": "address",
          "name": "newOwner",
          "type": "address"
        }
      ],
      "name": "transferOwnership",
      "outputs": [],
      "stateMutability": "nonpayable",
      "type": "function"
    },
    {
      "inputs": [],
      "name": "votingDeadline",
      "outputs": [
        {
          "internalType": "uint256",
          "name": "",
          "type": "uint256"
        }
      ],
      "stateMutability": "view",
      "type": "function"
    }
  ],
  "bytecode": "0x608060405234801561001057600080fd5b506040516121db3803806121db83398101604081905261002f91610377565b846001600160a01b03811661005e57604051631e4fbdf760e01b81526000600482015260240160405180910390fd5b610067816100f0565b50600461007488826104b9565b5060405161008190610285565b604051809103906000f08015801561009d573d6000803e3d6000fd5b50600280546001600160a01b0319166001600160a01b03929092169190911790556006849055600783905560088290556009805460ff19168215151790556100e486610140565b505050505050506105e0565b600080546001600160a01b038381166001600160a01b0319831681178455604051919092169283917f8be0079c531659141344cd1fd0a4f28419497f9722a3daafe3b4186f6b6457e09190a35050565b6000308260405161015090610292565b61015b929190610577565b604051809103906000f080158015610177573d6000803e3d6000fd5b5060018054808201825560008281527fb10e2d527612073b26eecdfd717e6a320cf44b4afac2b0732d9fcbe2b7fa0cf690910180546001600160a01b0319166001600160a01b0385161790558154929350916101d391906105b9565b90508060000361023f578060038190555042600581905550816001600160a01b0316631ec6b60a6040518163ffffffff1660e01b8152600401600060405180830381600087803b15801561022657600080fd5b505af115801561023a573d6000803e3d6000fd5b505050505b604080518281526001600160a01b03841660208201527f930cbf894ce7980f8d7e648e4f579028f57f4fb8950bfc42d1a411374c5cef5a910160405180910390a1505050565b61010a8061110083390190565b610fd18061120a83390190565b634e487b7160e01b600052604160045260246000fd5b60005b838110156102d05781810151838201526020016102b8565b50506000910152565b600082601f8301126102ea57600080fd5b81516001600160401b038111156103035761030361029f565b604051601f8201601f19908116603f011681016001600160401b03811182821017156103315761033161029f565b60405281815283820160200185101561034957600080fd5b61035a8260208301602087016102b5565b949350505050565b8051801515811461037257600080fd5b919050565b600080600080600080600060e0888a03121561039257600080fd5b87516001600160401b038111156103a857600080fd5b6103b48a828b016102d9565b60208a015190985090506001600160401b038111156103d257600080fd5b6103de8a828b016102d9565b60408a015190975090506001600160a01b03811681146103fd57600080fd5b606089015160808a015160a08b01519297509095509350915061042260c08901610362565b905092959891949750929550565b600181811c9082168061044457607f821691505b60208210810361046457634e487b7160e01b600052602260045260246000fd5b50919050565b601f8211156104b457806000526020600020601f840160051c810160208510156104915750805b601f840160051c820191505b818110156104b1576000815560010161049d565b50505b505050565b81516001600160401b038111156104d2576104d261029f565b6104e6816104e08454610430565b8461046a565b6020601f82116001811461051a57600083156105025750848201515b600019600385901b1c1916600184901b1784556104b1565b600084815260208120601f198516915b8281101561054a578785015182556020948501946001909201910161052a565b50848210156105685786840151600019600387901b60f8161c191681555b50505050600190811b01905550565b60018060a01b038316815260406020820152600082518060408401526105a48160608501602087016102b5565b601f01601f1916919091016060019392505050565b818103818111156105da57634e487b7160e01b600052601160045260246000fd5b92915050565b610b11806105ef6000396000f3fe608060405234801561001057600080fd5b506004361061010b5760003560e01c8063715018a6116100a2578063b97a7d2411610071578063b97a7d24146101d6578063c7f758a8146101eb578063daf8bd53146101fe578063f2dee81e14610213578063f2fde38b1461021b57600080fd5b8063715018a6146101a157806378e97925146101a95780637dc0d1d0146101b25780638da5cb5b146101c557600080fd5b8063224a9dfe116100de578063224a9dfe1461017e5780632b49d42514610187578063583a135d146101905780635c4f4fd41461019957600080fd5b8063013cf08b1461011057806301725a0b14610140578063036ee8501461015d5780630f7a459014610174575b600080fd5b61012361011e366004610883565b61022e565b6040516001600160a01b0390911681526020015b60405180910390f35b60095461014d9060ff1681565b6040519015158152602001610137565b61016660085481565b604051908152602001610137565b61017c610258565b005b61016660065481565b61016660035481565b61016660075481565b600154610166565b61017c6103b3565b61016660055481565b600254610123906001600160a01b031681565b6000546001600160a01b0316610123565b6101de6103c7565b6040516101379190610927565b6101236101f9366004610883565b610524565b610206610554565b60405161013791906109c5565b61017c6105e2565b61017c6102293660046109df565b610771565b6001818154811061023e57600080fd5b6000918252602090912001546001600160a01b0316905081565b600654806005546102699190610a1e565b421180610278575060095460ff165b6102bc5760405162461bcd60e51b815260206004820152601060248201526f2a34b6b29034b9903737ba1037bb32b960811b60448201526064015b60405180910390fd5b6007546002546040805163de29278960e01b81529051600093926001600160a01b03169163de2927899160048083019260209291908290030181865afa15801561030a573d6000803e3d6000fd5b505050506040513d601f19601f8201168201806040525081019061032e9190610a37565b1015905060016003548154811061034757610347610a50565b6000918252602090912001546040516351045fab60e01b815282151560048201526001600160a01b03909116906351045fab90602401600060405180830381600087803b15801561039757600080fd5b505af11580156103ab573d6000803e3d6000fd5b505050505050565b6103bb6107af565b6103c560006107dc565b565b6103cf61082c565b6103d761082c565b308152600480546103e790610a66565b80601f016020809104026020016040519081016040528092919081815260200182805461041390610a66565b80156104605780601f1061043557610100808354040283529160200191610460565b820191906000526020600020905b81548152906001019060200180831161044357829003601f168201915b5050505060208084019290925250600180546040805182850281018501909152818152928301828280156104bd57602002820191906000526020600020905b81546001600160a01b0316815260019091019060200180831161049f575b505050505060408201526006546060820152600754608082015260085460a082015260015415610517576001600354815481106104fc576104fc610a50565b6000918252602090912001546001600160a01b031660c08201525b60055460e0820152919050565b60006001828154811061053957610539610a50565b6000918252602090912001546001600160a01b031692915050565b6004805461056190610a66565b80601f016020809104026020016040519081016040528092919081815260200182805461058d90610a66565b80156105da5780601f106105af576101008083540402835291602001916105da565b820191906000526020600020905b8154815290600101906020018083116105bd57829003601f168201915b505050505081565b6105ea6107af565b600854806005546105fb9190610a1e565b42118061060a575060095460ff165b6106495760405162461bcd60e51b815260206004820152601060248201526f2a34b6b29034b9903737ba1037bb32b960811b60448201526064016102b3565b600060016003548154811061066057610660610a50565b9060005260206000200160009054906101000a90046001600160a01b03166001600160a01b031663c3403ddf6040518163ffffffff1660e01b81526004016020604051808303816000875af11580156106bd573d6000803e3d6000fd5b505050506040513d601f19601f820116820180604052508101906106e19190610aa0565b90508061076d57600354600154111561076d576003805490600061070483610ac2565b91905055504260058190555060016003548154811061072557610725610a50565b600091825260208220015460408051630f635b0560e11b815290516001600160a01b0390921692631ec6b60a9260048084019382900301818387803b15801561039757600080fd5b5050565b6107796107af565b6001600160a01b0381166107a357604051631e4fbdf760e01b8152600060048201526024016102b3565b6107ac816107dc565b50565b6000546001600160a01b031633146103c55760405163118cdaa760e01b81523360048201526024016102b3565b600080546001600160a01b038381166001600160a01b0319831681178455604051919092169283917f8be0079c531659141344cd1fd0a4f28419497f9722a3daafe3b4186f6b6457e09190a35050565b60405180610100016040528060006001600160a01b03168152602001606081526020016060815260200160008152602001600081526020016000815260200160006001600160a01b03168152602001600081525090565b60006020828403121561089557600080fd5b5035919050565b6000815180845260005b818110156108c2576020818501810151868301820152016108a6565b506000602082860101526020601f19601f83011685010191505092915050565b600081518084526020840193506020830160005b8281101561091d5781516001600160a01b03168652602095860195909101906001016108f6565b5093949350505050565b602080825282516001600160a01b031682820152820151610100604083015260009061095761012084018261089c565b90506040840151601f1984830301606085015261097482826108e2565b91505060608401516080840152608084015160a084015260a084015160c084015260c08401516109af60e08501826001600160a01b03169052565b5060e08401516101008401528091505092915050565b6020815260006109d8602083018461089c565b9392505050565b6000602082840312156109f157600080fd5b81356001600160a01b03811681146109d857600080fd5b634e487b7160e01b600052601160045260246000fd5b80820180821115610a3157610a31610a08565b92915050565b600060208284031215610a4957600080fd5b5051919050565b634e487b7160e01b600052603260045260246000fd5b600181811c90821680610a7a57607f821691505b602082108103610a9a57634e487b7160e01b600052602260045260246000fd5b50919050565b600060208284031215610ab257600080fd5b815180151581146109d857600080fd5b600060018201610ad457610ad4610a08565b506001019056fea2646970667358221220dfaa84dea5f78c2d365558e92e5ff2a1aac8d962c03cdae3ee2be8e6c7889c5864736f6c634300081a00336080604052348015600f57600080fd5b5060ec8061001e6000396000f3fe6080604052348015600f57600080fd5b506004361060325760003560e01c806382dcc26d146037578063de292789146048575b600080fd5b60466042366004609e565b605d565b005b60005460405190815260200160405180910390f35b600081905560408051308152602081018390527fb44649ee09be3c07f6be7f169266f5027caa7f0eec61d4b7e409cbe15d7e32f6910160405180910390a150565b60006020828403121560af57600080fd5b503591905056fea2646970667358221220f7ca80cb6366baf735da2ae4f8fa175bdc0950663d093c952e4642cbfdab068964736f6c634300081a0033608060405234801561001057600080fd5b50604051610fd1380380610fd183398101604081905261002f916100ec565b816001600160a01b03811661005e57604051631e4fbdf760e01b81526000600482015260240160405180910390fd5b61006781610086565b5060016100748282610261565b50506002805460ff191690555061031f565b600080546001600160a01b038381166001600160a01b0319831681178455604051919092169283917f8be0079c531659141344cd1fd0a4f28419497f9722a3daafe3b4186f6b6457e09190a35050565b634e487b7160e01b600052604160045260246000fd5b600080604083850312156100ff57600080fd5b82516001600160a01b038116811461011657600080fd5b60208401519092506001600160401b0381111561013257600080fd5b8301601f8101851361014357600080fd5b80516001600160401b0381111561015c5761015c6100d6565b604051601f8201601f19908116603f011681016001600160401b038111828210171561018a5761018a6100d6565b6040528181528282016020018710156101a257600080fd5b60005b828110156101c1576020818501810151838301820152016101a5565b506000602083830101528093505050509250929050565b600181811c908216806101ec57607f821691505b60208210810361020c57634e487b7160e01b600052602260045260246000fd5b50919050565b601f82111561025c57806000526020600020601f840160051c810160208510156102395750805b601f840160051c820191505b818110156102595760008155600101610245565b50505b505050565b81516001600160401b0381111561027a5761027a6100d6565b61028e8161028884546101d8565b84610212565b6020601f8211600181146102c257600083156102aa5750848201515b600019600385901b1c1916600184901b178455610259565b600084815260208120601f198516915b828110156102f257878501518255602094850194600190920191016102d2565b50848210156103105786840151600019600387901b60f8161c191681555b50505050600190811b01905550565b610ca38061032e6000396000f3fe6080604052600436106100f35760003560e01c80638da5cb5b1161008a578063b9e2bea011610059578063b9e2bea01461024c578063c3403ddf1461026e578063daf8bd5314610283578063f2fde38b146102a557600080fd5b80638da5cb5b146101fe578063919c4b0a146102265780639e0754491461023c578063a9709c0c1461024457600080fd5b80633ccfd60b116100c65780633ccfd60b1461019457806351045fab1461019c578063715018a6146101bc5780638801bf91146101d157600080fd5b80630f7a4590146100f857806311dba1811461012c57806312897d07146101675780631ec6b60a1461017d575b600080fd5b34801561010457600080fd5b5060025461011790610100900460ff1681565b60405190151581526020015b60405180910390f35b34801561013857600080fd5b50610159610147366004610a81565b60066020526000908152604090205481565b604051908152602001610123565b34801561017357600080fd5b5061015960045481565b34801561018957600080fd5b506101926102c5565b005b6101926102dc565b3480156101a857600080fd5b506101926101b7366004610ab1565b6105c5565b3480156101c857600080fd5b50610192610628565b3480156101dd57600080fd5b506101596101ec366004610a81565b60056020526000908152604090205481565b34801561020a57600080fd5b506000546040516001600160a01b039091168152602001610123565b34801561023257600080fd5b5061015960035481565b61019261063a565b61019261069c565b34801561025857600080fd5b506102616106f7565b6040516101239190610b2f565b34801561027a57600080fd5b50610117610859565b34801561028f57600080fd5b506102986108e5565b6040516101239190610bb8565b3480156102b157600080fd5b506101926102c0366004610a81565b610973565b6102cd6109b1565b6002805460ff19166001179055565b6002805460ff1660048111156102f4576102f4610b19565b036104cc5733600090815260056020908152604080832054600690925290912054811515806103235750600081115b61036b5760405162461bcd60e51b81526020600482015260146024820152734e6f2066756e647320746f20776974686472617760601b60448201526064015b60405180910390fd5b3360009081526005602090815260408083208390556006909152812055811561042857604051600090339084908381818185875af1925050503d80600081146103d0576040519150601f19603f3d011682016040523d82523d6000602084013e6103d5565b606091505b50509050806104265760405162461bcd60e51b815260206004820181905260248201527f5769746864726177616c206f662027596573272066756e6473206661696c65646044820152606401610362565b505b80156104c857604051600090339083908381818185875af1925050503d8060008114610470576040519150601f19603f3d011682016040523d82523d6000602084013e610475565b606091505b50509050806104c65760405162461bcd60e51b815260206004820152601f60248201527f5769746864726177616c206f6620274e6f272066756e6473206661696c6564006044820152606401610362565b505b5050565b600460025460ff1660048111156104e5576104e5610b19565b036105c35760006004546003546104fc9190610be1565b6105046109de565b61050e9190610bfa565b3360008181526005602090815260408083208390556006909152808220829055519293509183908381818185875af1925050503d806000811461056d576040519150601f19603f3d011682016040523d82523d6000602084013e610572565b606091505b50509050806104c85760405162461bcd60e51b815260206004820152601760248201527f436c61696d696e672072657761726473206661696c65640000000000000000006044820152606401610362565b565b6105cd6109b1565b6002805482151561010090810261ffff199092169190911760041791829055604051910460ff16151581527f0d91d7e2574d629f04252d615142935e3cc2a9d06eeda1418bac7a71d3b2b4dd9060200160405180910390a150565b6106306109b1565b6105c36000610a31565b600160025460ff16600481111561065357610653610b19565b1461065d57600080fd5b336000908152600560205260408120805434929061067c908490610be1565b9250508190555034600360008282546106959190610be1565b9091555050565b600160025460ff1660048111156106b5576106b5610b19565b146106bf57600080fd5b33600090815260066020526040812080543492906106de908490610be1565b9250508190555034600460008282546106959190610be1565b6107326040805160c0810182526000808252606060208301529091820190815260200160008152602001600081526020016000151581525090565b61076d6040805160c0810182526000808252606060208301529091820190815260200160008152602001600081526020016000151581525090565b3081526001805461077d90610c11565b80601f01602080910402602001604051908101604052809291908181526020018280546107a990610c11565b80156107f65780601f106107cb576101008083540402835291602001916107f6565b820191906000526020600020905b8154815290600101906020018083116107d957829003601f168201915b50505050506020820152600254604082019060ff16600481111561081c5761081c610b19565b9081600481111561082f5761082f610b19565b90525060035460608201526004546080820152600254610100900460ff16151560a0820152919050565b60006108636109b1565b600354600454106108a9576002805460ff1916811790556040517fd9b98126754488697fc3a0bc3e9712c57e60e8e41bc7b8c24fee5fa948d3e9dd90600090a150600090565b6002805460ff191660031790556040517fbf9067c9d0ba76fdfcb416bccec45fe88cda5437e5220b5a31d49b89d909567b90600090a150600190565b600180546108f290610c11565b80601f016020809104026020016040519081016040528092919081815260200182805461091e90610c11565b801561096b5780601f106109405761010080835404028352916020019161096b565b820191906000526020600020905b81548152906001019060200180831161094e57829003601f168201915b505050505081565b61097b6109b1565b6001600160a01b0381166109a557604051631e4fbdf760e01b815260006004820152602401610362565b6109ae81610a31565b50565b6000546001600160a01b031633146105c35760405163118cdaa760e01b8152336004820152602401610362565b600254600090610100900460ff1615610a145733600090815260056020526040902054600354610a0e9082610c4b565b91505090565b33600090815260066020526040902054600454610a0e9082610c4b565b600080546001600160a01b038381166001600160a01b0319831681178455604051919092169283917f8be0079c531659141344cd1fd0a4f28419497f9722a3daafe3b4186f6b6457e09190a35050565b600060208284031215610a9357600080fd5b81356001600160a01b0381168114610aaa57600080fd5b9392505050565b600060208284031215610ac357600080fd5b81358015158114610aaa57600080fd5b6000815180845260005b81811015610af957602081850181015186830182015201610add565b506000602082860101526020601f19601f83011685010191505092915050565b634e487b7160e01b600052602160045260246000fd5b602080825282516001600160a01b03168282015282015160c06040830152600090610b5d60e0840182610ad3565b9050604084015160058110610b8257634e487b7160e01b600052602160045260246000fd5b8060608501525060608401516080840152608084015160a084015260a0840151610bb060c085018215159052565b509392505050565b602081526000610aaa6020830184610ad3565b634e487b7160e01b600052601160045260246000fd5b80820180821115610bf457610bf4610bcb565b92915050565b8082028115828204841417610bf457610bf4610bcb565b600181811c90821680610c2557607f821691505b602082108103610c4557634e487b7160e01b600052602260045260246000fd5b50919050565b600082610c6857634e487b7160e01b600052601260045260246000fd5b50049056fea2646970667358221220c92f89869580d326a4c9cc47498dd2f9bf9fe8d2646e7cf5f5969bda3be664fa64736f6c634300081a0033",
  "linkReferences": {},
  "deployedLinkReferences": {}
}